{
  "contracts/StakBank.sol": {
    "StakBank": {
      "abi": [
        {
          "inputs": [
            {
              "internalType": "contract IERC20",
              "name": "StakContract",
              "type": "address"
            }
          ],
          "stateMutability": "nonpayable",
          "type": "constructor"
        },
        {
          "anonymous": false,
          "inputs": [
            {
              "indexed": true,
              "internalType": "address",
              "name": "account",
              "type": "address"
            }
          ],
          "name": "AddedToWhitelist",
          "type": "event"
        },
        {
          "anonymous": false,
          "inputs": [
            {
              "indexed": false,
              "internalType": "uint256",
              "name": "amount",
              "type": "uint256"
            }
          ],
          "name": "MinHeldTokensChanged",
          "type": "event"
        },
        {
          "anonymous": false,
          "inputs": [
            {
              "indexed": true,
              "internalType": "address",
              "name": "previousOwner",
              "type": "address"
            },
            {
              "indexed": true,
              "internalType": "address",
              "name": "newOwner",
              "type": "address"
            }
          ],
          "name": "OwnershipTransferred",
          "type": "event"
        },
        {
          "anonymous": false,
          "inputs": [
            {
              "indexed": true,
              "internalType": "address",
              "name": "account",
              "type": "address"
            }
          ],
          "name": "RemovedFromWhitelist",
          "type": "event"
        },
        {
          "anonymous": false,
          "inputs": [
            {
              "indexed": false,
              "internalType": "uint256",
              "name": "timestamp",
              "type": "uint256"
            },
            {
              "indexed": false,
              "internalType": "uint256",
              "name": "stakingFunds",
              "type": "uint256"
            }
          ],
          "name": "StakingBegins",
          "type": "event"
        },
        {
          "anonymous": false,
          "inputs": [
            {
              "indexed": false,
              "internalType": "enum StakBank.poolNames",
              "name": "pool",
              "type": "uint8"
            },
            {
              "indexed": false,
              "internalType": "address",
              "name": "userAddress",
              "type": "address"
            },
            {
              "indexed": false,
              "internalType": "uint256",
              "name": "principal",
              "type": "uint256"
            },
            {
              "indexed": false,
              "internalType": "uint256",
              "name": "yield",
              "type": "uint256"
            },
            {
              "indexed": false,
              "internalType": "uint256",
              "name": "userFundsRemaining",
              "type": "uint256"
            },
            {
              "indexed": false,
              "internalType": "uint256",
              "name": "stakingFundsRemaining",
              "type": "uint256"
            }
          ],
          "name": "Withdraw",
          "type": "event"
        },
        {
          "inputs": [],
          "name": "active",
          "outputs": [
            {
              "internalType": "bool",
              "name": "",
              "type": "bool"
            }
          ],
          "stateMutability": "view",
          "type": "function"
        },
        {
          "inputs": [
            {
              "internalType": "address",
              "name": "_address",
              "type": "address"
            }
          ],
          "name": "addToWhitelist",
          "outputs": [],
          "stateMutability": "nonpayable",
          "type": "function"
        },
        {
          "inputs": [
            {
              "internalType": "address[]",
              "name": "_address",
              "type": "address[]"
            }
          ],
          "name": "addToWhitelistBatch",
          "outputs": [],
          "stateMutability": "nonpayable",
          "type": "function"
        },
        {
          "inputs": [],
          "name": "beginStaking",
          "outputs": [],
          "stateMutability": "nonpayable",
          "type": "function"
        },
        {
          "inputs": [],
          "name": "cutoffTime",
          "outputs": [
            {
              "internalType": "uint256",
              "name": "",
              "type": "uint256"
            }
          ],
          "stateMutability": "view",
          "type": "function"
        },
        {
          "inputs": [
            {
              "internalType": "uint256",
              "name": "depositAmount",
              "type": "uint256"
            },
            {
              "internalType": "enum StakBank.poolNames",
              "name": "_pool",
              "type": "uint8"
            }
          ],
          "name": "deposit",
          "outputs": [],
          "stateMutability": "nonpayable",
          "type": "function"
        },
        {
          "inputs": [
            {
              "internalType": "uint256",
              "name": "daysStaked",
              "type": "uint256"
            },
            {
              "internalType": "enum StakBank.poolNames",
              "name": "_pool",
              "type": "uint8"
            }
          ],
          "name": "getNDays",
          "outputs": [
            {
              "internalType": "uint64",
              "name": "",
              "type": "uint64"
            }
          ],
          "stateMutability": "view",
          "type": "function"
        },
        {
          "inputs": [
            {
              "internalType": "enum StakBank.poolNames",
              "name": "_pool",
              "type": "uint8"
            }
          ],
          "name": "getStakingFunds",
          "outputs": [
            {
              "internalType": "uint256",
              "name": "",
              "type": "uint256"
            }
          ],
          "stateMutability": "view",
          "type": "function"
        },
        {
          "inputs": [
            {
              "internalType": "address",
              "name": "userAddress",
              "type": "address"
            },
            {
              "internalType": "enum StakBank.poolNames",
              "name": "_pool",
              "type": "uint8"
            }
          ],
          "name": "getUserDepositTotal",
          "outputs": [
            {
              "internalType": "uint256",
              "name": "",
              "type": "uint256"
            }
          ],
          "stateMutability": "view",
          "type": "function"
        },
        {
          "inputs": [
            {
              "internalType": "address",
              "name": "userAddress",
              "type": "address"
            }
          ],
          "name": "getUserDeposits",
          "outputs": [
            {
              "components": [
                {
                  "internalType": "enum StakBank.poolNames",
                  "name": "pool",
                  "type": "uint8"
                },
                {
                  "internalType": "uint256",
                  "name": "amount",
                  "type": "uint256"
                },
                {
                  "internalType": "uint256",
                  "name": "depositTime",
                  "type": "uint256"
                }
              ],
              "internalType": "struct StakBank.userDeposit[]",
              "name": "",
              "type": "tuple[]"
            }
          ],
          "stateMutability": "view",
          "type": "function"
        },
        {
          "inputs": [
            {
              "internalType": "enum StakBank.poolNames",
              "name": "_pool",
              "type": "uint8"
            }
          ],
          "name": "getUserFunds",
          "outputs": [
            {
              "internalType": "uint256",
              "name": "",
              "type": "uint256"
            }
          ],
          "stateMutability": "view",
          "type": "function"
        },
        {
          "inputs": [
            {
              "internalType": "address",
              "name": "userAddress",
              "type": "address"
            },
            {
              "internalType": "enum StakBank.poolNames",
              "name": "_pool",
              "type": "uint8"
            }
          ],
          "name": "getUserYield",
          "outputs": [
            {
              "internalType": "uint256",
              "name": "",
              "type": "uint256"
            }
          ],
          "stateMutability": "view",
          "type": "function"
        },
        {
          "inputs": [
            {
              "internalType": "uint256",
              "name": "daysStaked",
              "type": "uint256"
            },
            {
              "internalType": "enum StakBank.poolNames",
              "name": "_pool",
              "type": "uint8"
            }
          ],
          "name": "getYieldMultiplier",
          "outputs": [
            {
              "internalType": "uint256",
              "name": "",
              "type": "uint256"
            }
          ],
          "stateMutability": "view",
          "type": "function"
        },
        {
          "inputs": [
            {
              "internalType": "address",
              "name": "_address",
              "type": "address"
            }
          ],
          "name": "isWhitelisted",
          "outputs": [
            {
              "internalType": "bool",
              "name": "",
              "type": "bool"
            }
          ],
          "stateMutability": "view",
          "type": "function"
        },
        {
          "inputs": [],
          "name": "minHeldTokens",
          "outputs": [
            {
              "internalType": "uint256",
              "name": "",
              "type": "uint256"
            }
          ],
          "stateMutability": "view",
          "type": "function"
        },
        {
          "inputs": [],
          "name": "minStakingAmount",
          "outputs": [
            {
              "internalType": "uint256",
              "name": "",
              "type": "uint256"
            }
          ],
          "stateMutability": "view",
          "type": "function"
        },
        {
          "inputs": [],
          "name": "owner",
          "outputs": [
            {
              "internalType": "address",
              "name": "",
              "type": "address"
            }
          ],
          "stateMutability": "view",
          "type": "function"
        },
        {
          "inputs": [
            {
              "internalType": "enum StakBank.poolNames",
              "name": "",
              "type": "uint8"
            }
          ],
          "name": "pools",
          "outputs": [
            {
              "internalType": "uint256",
              "name": "maturityAPY",
              "type": "uint256"
            },
            {
              "internalType": "uint64",
              "name": "daysToMaturity",
              "type": "uint64"
            },
            {
              "internalType": "uint64",
              "name": "earlyWithdrawalAPY",
              "type": "uint64"
            },
            {
              "internalType": "uint64",
              "name": "daysToEarlyWithdrawal",
              "type": "uint64"
            },
            {
              "internalType": "uint256",
              "name": "maxPoolCapacity",
              "type": "uint256"
            },
            {
              "internalType": "uint256",
              "name": "rewardSupply",
              "type": "uint256"
            },
            {
              "internalType": "uint256",
              "name": "stakingFunds",
              "type": "uint256"
            },
            {
              "internalType": "uint256",
              "name": "userFunds",
              "type": "uint256"
            },
            {
              "internalType": "uint256",
              "name": "totalDeposited",
              "type": "uint256"
            }
          ],
          "stateMutability": "view",
          "type": "function"
        },
        {
          "inputs": [
            {
              "internalType": "address",
              "name": "_address",
              "type": "address"
            }
          ],
          "name": "removFromWhitelist",
          "outputs": [],
          "stateMutability": "nonpayable",
          "type": "function"
        },
        {
          "inputs": [
            {
              "internalType": "address[]",
              "name": "_address",
              "type": "address[]"
            }
          ],
          "name": "removFromWhitelistBatch",
          "outputs": [],
          "stateMutability": "nonpayable",
          "type": "function"
        },
        {
          "inputs": [],
          "name": "renounceOwnership",
          "outputs": [],
          "stateMutability": "nonpayable",
          "type": "function"
        },
        {
          "inputs": [
            {
              "internalType": "uint256",
              "name": "_amount",
              "type": "uint256"
            }
          ],
          "name": "setHeldTokens",
          "outputs": [],
          "stateMutability": "nonpayable",
          "type": "function"
        },
        {
          "inputs": [],
          "name": "startTime",
          "outputs": [
            {
              "internalType": "uint256",
              "name": "",
              "type": "uint256"
            }
          ],
          "stateMutability": "view",
          "type": "function"
        },
        {
          "inputs": [],
          "name": "totalRewardSupply",
          "outputs": [
            {
              "internalType": "uint256",
              "name": "",
              "type": "uint256"
            }
          ],
          "stateMutability": "view",
          "type": "function"
        },
        {
          "inputs": [
            {
              "internalType": "address",
              "name": "newOwner",
              "type": "address"
            }
          ],
          "name": "transferOwnership",
          "outputs": [],
          "stateMutability": "nonpayable",
          "type": "function"
        },
        {
          "inputs": [
            {
              "internalType": "enum StakBank.poolNames",
              "name": "_pool",
              "type": "uint8"
            }
          ],
          "name": "withdraw",
          "outputs": [],
          "stateMutability": "nonpayable",
          "type": "function"
        }
      ],
      "evm": {
        "bytecode": {
          "linkReferences": {},
          "object": "60a0604052600280546001600160a01b031916731f8a626883d7724dbd59ef51cbd4bf1cf2016d1317905568056bc75e2d631000006003553480156200004457600080fd5b50604051620025c0380380620025c0833981016040819052620000679162000435565b60006200007362000431565b600080546001600160a01b0319166001600160a01b0383169081178255604051929350917f8be0079c531659141344cd1fd0a4f28419497f9722a3daafe3b4186f6b6457e0908290a350606081811b6001600160601b0319166080908152604080516101208101825260148152603c6020820152600891810191909152601e928101929092526969e10de76676d08000009082015269037b20126dd6063c000060a0820152600060c0820181905260e08201819052610100820181905260079080815260208082019290925260409081016000908120845181558484015160018083018054888701516060808b01516001600160401b03908116600160801b02600160801b600160c01b03199382166801000000000000000002600160401b600160801b0319929098166001600160401b031990951694909417169590951716179055608080880151600285015560a080890151600386015560c0808a0151600487015560e0808b015160058801556101009a8b015160069097019690965587516101208101895260238152607899810199909952600e97890197909752603c9388019390935269d3c21bcecceda10000009087015269185de0166c02dc61000091860191909152928401829052830181905292820183905290916007918152602080820192909252604090810160009081208451815584840151600182018054878601516060808a01516001600160401b03908116600160801b02600160801b600160c01b03199382166801000000000000000002600160401b600160801b0319929097166001600160401b03199095169490941716949094171617905560808087015160028085019190915560a080890151600386015560c0808a0151600487015560e0808b015160058801556101009a8b01516006909701969096558751610120810189526032815260b49981019990995260149789019790975260649388019390935269d3c21bcecceda100000091870191909152693436e03f45dbbefe000091860191909152928401829052830181905292820183905290916007918152602080820192909252604090810160002083518155918301516001830180549285015160608601516001600160401b03199094166001600160401b0393841617600160401b600160801b031916680100000000000000009184169190910217600160801b600160c01b031916600160801b92909316919091029190911790556080820151600282015560a0820151600382015560c0820151600482015560e08201516005820155610100909101516006909101555062000465565b3390565b60006020828403121562000447578081fd5b81516001600160a01b03811681146200045e578182fd5b9392505050565b60805160601c6121296200049760003980610866528061093b5280610c4d5280611285528061141152506121296000f3fe608060405234801561001057600080fd5b50600436106101ae5760003560e01c806378e97925116100ee578063c6ab5d9011610097578063ec94e0a311610071578063ec94e0a31461033e578063f291757f14610351578063f2fde38b14610364578063fb87a63514610377576101ae565b8063c6ab5d9014610310578063dfef571714610323578063e43252d71461032b576101ae565b80638da5cb5b116100c85780638da5cb5b146102d5578063a6177139146102ea578063bd18e0fd146102fd576101ae565b806378e97925146102a55780637bfa7f5f146102ad5780638a8a759e146102cd576101ae565b80633af32abf1161015b57806363119960116101355780636311996014610264578063654cfdff146102775780636c281c051461028a578063715018a61461029d576101ae565b80633af32abf1461023657806362107e8d146102495780636269afab14610251576101ae565b806325c065b11161018c57806325c065b1146101f95780632a5bf6d21461020e5780632f0c1ed51461022e576101ae565b806302fb0c5e146101b35780630a3453d7146101d15780630c6f444b146101e6575b600080fd5b6101bb61039f565b6040516101c89190611c17565b60405180910390f35b6101e46101df366004611af7565b6103a8565b005b6101e46101f4366004611a1e565b6103e8565b610201610464565b6040516101c89190612016565b61022161021c3660046119c0565b610471565b6040516101c89190611bb6565b61020161051c565b6101bb6102443660046119c0565b610522565b6102016105d0565b6101e461025f3660046119c0565b6105d6565b6102016102723660046119db565b610684565b6101e4610285366004611b27565b6107f1565b6102016102983660046119db565b610cde565b6101e4610dae565b610201610e44565b6102c06102bb366004611b27565b610e4a565b6040516101c8919061207c565b610201610f61565b6102dd610f6f565b6040516101c89190611b4b565b6101e46102f8366004611a1e565b610f7e565b61020161030b366004611adb565b610fed565b6101e461031e366004611adb565b611023565b6101e46113af565b6101e46103393660046119c0565b6115f3565b61020161034c366004611b27565b6116a7565b61020161035f366004611adb565b6117ae565b6101e46103723660046119c0565b6117e4565b61038a610385366004611adb565b6118b1565b6040516101c89998979695949392919061202d565b60045460ff1681565b60038190556040517fe438b1e59c6066523a5ab53e2973f73b565e85312ebf606bae7fe8e006d255ce906103dd908390612016565b60405180910390a150565b6103f0611910565b6001600160a01b0316610401610f6f565b6001600160a01b0316146104305760405162461bcd60e51b815260040161042790611e4b565b60405180910390fd5b60005b81518110156104605761045882828151811061044b57fe5b60200260200101516105d6565b600101610433565b5050565b686c6b935b8bbd40000081565b6001600160a01b0381166000908152600860209081526040808320805482518185028101850190935280835260609492939192909184015b82821015610510576000848152602090206040805160608101909152600384029091018054829060ff1660028111156104de57fe5b60028111156104e957fe5b815260200160018201548152602001600282015481525050815260200190600101906104a9565b5050505090505b919050565b60035481565b6001600160a01b03811660009081526001602052604081205460ff16806105ca57506003546002546040516370a0823160e01b81526001600160a01b03909116906370a0823190610577908690600401611b4b565b60206040518083038186803b15801561058f57600080fd5b505afa1580156105a3573d6000803e3d6000fd5b505050506040513d601f19601f820116820180604052508101906105c79190611b0f565b10155b92915050565b60065481565b6105de611910565b6001600160a01b03166105ef610f6f565b6001600160a01b0316146106155760405162461bcd60e51b815260040161042790611e4b565b6001600160a01b03811661063b5760405162461bcd60e51b815260040161042790611fa8565b6001600160a01b038116600081815260016020526040808220805460ff19169055517fcdd2e9b91a56913d370075169cefa1602ba36be5301664f752192bb1709df7579190a250565b60008060005b6001600160a01b0385166000908152600860205260409020548110156107e9578360028111156106b657fe5b6001600160a01b03861660009081526008602052604090208054839081106106da57fe5b600091825260209091206003909102015460ff1660028111156106f957fe5b14156107e1576001600160a01b038516600090815260086020526040812080546201518091908490811061072957fe5b90600052602060002090600302016002015442038161074457fe5b049050600061075382876116a7565b905060006107618388610e4a565b90506107db6907baab4146b63dd000008267ffffffffffffffff1684600860008d6001600160a01b03166001600160a01b0316815260200190815260200160002088815481106107ad57fe5b906000526020600020906003020160010154670de0b6b3a7640000020202816107d257fe5b87919004611914565b94505050505b60010161068a565b509392505050565b3360008181526001602081905260409091205460ff161515146108265760405162461bcd60e51b815260040161042790611f14565b60045460ff16151560011461084d5760405162461bcd60e51b815260040161042790611db7565b6040516370a0823160e01b815283906001600160a01b037f000000000000000000000000000000000000000000000000000000000000000016906370a082319061089b903390600401611b4b565b60206040518083038186803b1580156108b357600080fd5b505afa1580156108c7573d6000803e3d6000fd5b505050506040513d601f19601f820116820180604052508101906108eb9190611b0f565b10156109095760405162461bcd60e51b815260040161042790611cb5565b6040517fdd62ed3e00000000000000000000000000000000000000000000000000000000815283906001600160a01b037f0000000000000000000000000000000000000000000000000000000000000000169063dd62ed3e906109729033903090600401611b5f565b60206040518083038186803b15801561098a57600080fd5b505afa15801561099e573d6000803e3d6000fd5b505050506040513d601f19601f820116820180604052508101906109c29190611b0f565b10156109e05760405162461bcd60e51b815260040161042790611fdf565b686c6b935b8bbd400000831015610a095760405162461bcd60e51b815260040161042790611e80565b60076000836002811115610a1957fe5b6002811115610a2457fe5b81526020019081526020016000206002015460076000846002811115610a4657fe5b6002811115610a5157fe5b81526020019081526020016000206006015410610a805760405162461bcd60e51b815260040161042790611dee565b6006544210610aa15760405162461bcd60e51b815260040161042790611eb7565b610ae08360076000856002811115610ab557fe5b6002811115610ac057fe5b81526020019081526020016000206006015461191490919063ffffffff16565b60076000846002811115610af057fe5b6002811115610afb57fe5b815260200190815260200160002060060181905550610b4f8360076000856002811115610b2457fe5b6002811115610b2f57fe5b81526020019081526020016000206005015461191490919063ffffffff16565b60076000846002811115610b5f57fe5b6002811115610b6a57fe5b81526020019081526020016000206005018190555060086000336001600160a01b03166001600160a01b031681526020019081526020016000206040518060600160405280846002811115610bbb57fe5b815260208082018790524260409092019190915282546001818101855560009485529190932082516003909402018054929390929091839160ff191690836002811115610c0457fe5b021790555060208201516001820155604091820151600290910155517f23b872dd0000000000000000000000000000000000000000000000000000000081526001600160a01b037f000000000000000000000000000000000000000000000000000000000000000016906323b872dd90610c8690339030908890600401611b79565b602060405180830381600087803b158015610ca057600080fd5b505af1158015610cb4573d6000803e3d6000fd5b505050506040513d601f19601f82011682018060405250810190610cd89190611abb565b50505050565b60008060005b6001600160a01b0385166000908152600860205260409020548110156107e957836002811115610d1057fe5b6001600160a01b0386166000908152600860205260409020805483908110610d3457fe5b600091825260209091206003909102015460ff166002811115610d5357fe5b1415610da6576001600160a01b03851660009081526008602052604090208054610da3919083908110610d8257fe5b9060005260206000209060030201600101548361191490919063ffffffff16565b91505b600101610ce4565b610db6611910565b6001600160a01b0316610dc7610f6f565b6001600160a01b031614610ded5760405162461bcd60e51b815260040161042790611e4b565b600080546040516001600160a01b03909116907f8be0079c531659141344cd1fd0a4f28419497f9722a3daafe3b4186f6b6457e0908390a36000805473ffffffffffffffffffffffffffffffffffffffff19169055565b60055481565b600060076000836002811115610e5c57fe5b6002811115610e6757fe5b815260208101919091526040016000206001015467ffffffffffffffff168310610ecb5760076000836002811115610e9b57fe5b6002811115610ea657fe5b815260208101919091526040016000206001015467ffffffffffffffff1690506105ca565b60076000836002811115610edb57fe5b6002811115610ee657fe5b8152602081019190915260400160002060010154600160801b900467ffffffffffffffff168310610f585760076000836002811115610f2157fe5b6002811115610f2c57fe5b8152602081019190915260400160002060010154600160801b900467ffffffffffffffff1690506105ca565b50600092915050565b69500fe0681fb4a19b000081565b6000546001600160a01b031690565b610f86611910565b6001600160a01b0316610f97610f6f565b6001600160a01b031614610fbd5760405162461bcd60e51b815260040161042790611e4b565b60005b815181101561046057610fe5828281518110610fd857fe5b60200260200101516115f3565b600101610fc0565b600060076000836002811115610fff57fe5b600281111561100a57fe5b8152602001908152602001600020600501549050919050565b3360008181526001602081905260409091205460ff161515146110585760405162461bcd60e51b815260040161042790611f14565b60045460ff16151560011461107f5760405162461bcd60e51b815260040161042790611db7565b600061108b3384610cde565b9050600081116110ad5760405162461bcd60e51b815260040161042790611cec565b60006110b93385610684565b90506110fa82600760008760028111156110cf57fe5b60028111156110da57fe5b81526020019081526020016000206005015461194090919063ffffffff16565b6007600086600281111561110a57fe5b600281111561111557fe5b815260200190815260200160002060050181905550611169816007600087600281111561113e57fe5b600281111561114957fe5b81526020019081526020016000206004015461194090919063ffffffff16565b6007600086600281111561117957fe5b600281111561118457fe5b81526020019081526020016000206004018190555060005b33600090815260086020526040902054811015611245578460028111156111bf57fe5b3360009081526008602052604090208054839081106111da57fe5b600091825260209091206003909102015460ff1660028111156111f957fe5b141561123d5733600090815260086020526040902080548290811061121a57fe5b600091825260208220600390910201805460ff1916815560018101829055600201555b60010161119c565b5060006112528383611914565b6040517fa9059cbb0000000000000000000000000000000000000000000000000000000081529091506001600160a01b037f0000000000000000000000000000000000000000000000000000000000000000169063a9059cbb906112bc9033908590600401611b9d565b602060405180830381600087803b1580156112d657600080fd5b505af11580156112ea573d6000803e3d6000fd5b505050506040513d601f19601f8201168201806040525081019061130e9190611abb565b507f90a9098aa5ea5ea1098d8651723e3839693bb21ceaf8c670fdfe58357fff94b985338585600760008b600281111561134457fe5b600281111561134f57fe5b815260200190815260200160002060050154600760008c600281111561137157fe5b600281111561137c57fe5b8152602001908152602001600020600401546040516113a096959493929190611c22565b60405180910390a15050505050565b6113b7611910565b6001600160a01b03166113c8610f6f565b6001600160a01b0316146113ee5760405162461bcd60e51b815260040161042790611e4b565b6040516370a0823160e01b815269500fe0681fb4a19b0000906001600160a01b037f000000000000000000000000000000000000000000000000000000000000000016906370a0823190611446903090600401611b4b565b60206040518083038186803b15801561145e57600080fd5b505afa158015611472573d6000803e3d6000fd5b505050506040513d601f19601f820116820180604052508101906114969190611b0f565b146114b35760405162461bcd60e51b815260040161042790611f71565b6004805460ff191660011790554260058190556114d390620d2f00611914565b60065560076020527f6d5257204ebe7d88fd91ae87941cb2dd9d8062b64ae5a2bd2d28ec40b9fbf6e2547f6d5257204ebe7d88fd91ae87941cb2dd9d8062b64ae5a2bd2d28ec40b9fbf6e3557fb39221ace053465ec3453ce2b36430bd138b997ecea25c1043da0c366812b82b547fb39221ace053465ec3453ce2b36430bd138b997ecea25c1043da0c366812b82c5560026000527fb7c774451310d1be4108bc180d1b52823cb0ee0274a6c0081bcaf94f115fb970547fb7c774451310d1be4108bc180d1b52823cb0ee0274a6c0081bcaf94f115fb971556005546040517f026cfee5c80e24c0160c7f7aab61a3abfca172e09f4b963ae55218c6c7e2ea61916115e99169500fe0681fb4a19b00009061201f565b60405180910390a1565b6115fb611910565b6001600160a01b031661160c610f6f565b6001600160a01b0316146116325760405162461bcd60e51b815260040161042790611e4b565b6001600160a01b0381166116585760405162461bcd60e51b815260040161042790611fa8565b6001600160a01b0381166000818152600160208190526040808320805460ff1916909217909155517fa850ae9193f515cbae8d35e8925bd2be26627fc91bce650b8652ed254e9cab039190a250565b6000600760008360028111156116b957fe5b60028111156116c457fe5b815260208101919091526040016000206001015467ffffffffffffffff16831061171c57600760008360028111156116f857fe5b600281111561170357fe5b81526020019081526020016000206000015490506105ca565b6007600083600281111561172c57fe5b600281111561173757fe5b8152602081019190915260400160002060010154600160801b900467ffffffffffffffff168310610f58576007600083600281111561177257fe5b600281111561177d57fe5b815260208101919091526040016000206001015468010000000000000000900467ffffffffffffffff1690506105ca565b6000600760008360028111156117c057fe5b60028111156117cb57fe5b8152602001908152602001600020600401549050919050565b6117ec611910565b6001600160a01b03166117fd610f6f565b6001600160a01b0316146118235760405162461bcd60e51b815260040161042790611e4b565b6001600160a01b0381166118495760405162461bcd60e51b815260040161042790611d23565b600080546040516001600160a01b03808516939216917f8be0079c531659141344cd1fd0a4f28419497f9722a3daafe3b4186f6b6457e091a36000805473ffffffffffffffffffffffffffffffffffffffff19166001600160a01b0392909216919091179055565b6007602052600090815260409020805460018201546002830154600384015460048501546005860154600690960154949567ffffffffffffffff80861696680100000000000000008704821696600160801b9004909116949392919089565b3390565b6000828201838110156119395760405162461bcd60e51b815260040161042790611d80565b9392505050565b600061193983836040518060400160405280601e81526020017f536166654d6174683a207375627472616374696f6e206f766572666c6f770000815250600081848411156119a15760405162461bcd60e51b81526004016104279190611c62565b505050900390565b80356001600160a01b03811681146105ca57600080fd5b6000602082840312156119d1578081fd5b61193983836119a9565b600080604083850312156119ed578081fd5b82356001600160a01b0381168114611a03578182fd5b91506020830135611a13816120e3565b809150509250929050565b60006020808385031215611a30578182fd5b823567ffffffffffffffff811115611a46578283fd5b8301601f81018513611a56578283fd5b8035611a69611a64826120b8565b612091565b8181528381019083850185840285018601891015611a85578687fd5b8694505b83851015611aaf57611a9b89826119a9565b835260019490940193918501918501611a89565b50979650505050505050565b600060208284031215611acc578081fd5b81518015158114611939578182fd5b600060208284031215611aec578081fd5b8135611939816120e3565b600060208284031215611b08578081fd5b5035919050565b600060208284031215611b20578081fd5b5051919050565b60008060408385031215611b39578182fd5b823591506020830135611a13816120e3565b6001600160a01b0391909116815260200190565b6001600160a01b0392831681529116602082015260400190565b6001600160a01b039384168152919092166020820152604081019190915260600190565b6001600160a01b03929092168252602082015260400190565b602080825282518282018190526000919060409081850190868401855b82811015611c0a578151611be781516120d8565b855280870151878601528501518585015260609093019290850190600101611bd3565b5091979650505050505050565b901515815260200190565b60c08101611c2f886120d8565b82526001600160a01b0396909616602082015260408101949094526060840192909252608083015260a090910152919050565b6000602080835283518082850152825b81811015611c8e57858101830151858201604001528201611c72565b81811115611c9f5783604083870101525b50601f01601f1916929092016040019392505050565b60208082526016908201527f4e6f7420656e6f756768205354414b20746f6b656e7300000000000000000000604082015260600190565b60208082526013908201527f4e6f7468696e6720746f20776974686472617700000000000000000000000000604082015260600190565b60208082526026908201527f4f776e61626c653a206e6577206f776e657220697320746865207a65726f206160408201527f6464726573730000000000000000000000000000000000000000000000000000606082015260800190565b6020808252601b908201527f536166654d6174683a206164646974696f6e206f766572666c6f770000000000604082015260600190565b60208082526019908201527f5374616b696e6720686173206e6f7420626567756e2079657400000000000000604082015260600190565b60208082526022908201527f436f6e7472616374207374616b696e672063617061636974792065786365656460408201527f6564000000000000000000000000000000000000000000000000000000000000606082015260800190565b6020808252818101527f4f776e61626c653a2063616c6c6572206973206e6f7420746865206f776e6572604082015260600190565b60208082526015908201527f6465706f736974416d6f756e7420746f6f206c6f770000000000000000000000604082015260600190565b60208082526029908201527f436f6e7472616374207374616b696e67206465706f7369742074696d6520706560408201527f72696f64206f7665720000000000000000000000000000000000000000000000606082015260800190565b60208082526030908201527f557365722069736e277420617574686f72697a656420746f20706572666f726d60408201527f2074686973206f7065726174696f6e2e00000000000000000000000000000000606082015260800190565b6020808252601a908201527f4e6f7420656e6f756768207374616b696e672072657761726473000000000000604082015260600190565b6020808252601c908201527f49434f5f43414d504149474e3a3a494e56414c49445f57414c4c455400000000604082015260600190565b60208082526018908201527f436865636b20746865205354414b20616c6c6f77616e63650000000000000000604082015260600190565b90815260200190565b918252602082015260400190565b98895267ffffffffffffffff97881660208a01529587166040890152939095166060870152608086019190915260a085015260c084019290925260e08301919091526101008201526101200190565b67ffffffffffffffff91909116815260200190565b60405181810167ffffffffffffffff811182821017156120b057600080fd5b604052919050565b600067ffffffffffffffff8211156120ce578081fd5b5060209081020190565b806003811061051757fe5b600381106120f057600080fd5b5056fea2646970667358221220ffd5d909045193c99af6aba0810a27eda37669b092202cd48f2e5ec63a4e874364736f6c634300060c0033",
          "opcodes": "PUSH1 0xA0 PUSH1 0x40 MSTORE PUSH1 0x2 DUP1 SLOAD PUSH1 0x1 PUSH1 0x1 PUSH1 0xA0 SHL SUB NOT AND PUSH20 0x1F8A626883D7724DBD59EF51CBD4BF1CF2016D13 OR SWAP1 SSTORE PUSH9 0x56BC75E2D63100000 PUSH1 0x3 SSTORE CALLVALUE DUP1 ISZERO PUSH3 0x44 JUMPI PUSH1 0x0 DUP1 REVERT JUMPDEST POP PUSH1 0x40 MLOAD PUSH3 0x25C0 CODESIZE SUB DUP1 PUSH3 0x25C0 DUP4 CODECOPY DUP2 ADD PUSH1 0x40 DUP2 SWAP1 MSTORE PUSH3 0x67 SWAP2 PUSH3 0x435 JUMP JUMPDEST PUSH1 0x0 PUSH3 0x73 PUSH3 0x431 JUMP JUMPDEST PUSH1 0x0 DUP1 SLOAD PUSH1 0x1 PUSH1 0x1 PUSH1 0xA0 SHL SUB NOT AND PUSH1 0x1 PUSH1 0x1 PUSH1 0xA0 SHL SUB DUP4 AND SWAP1 DUP2 OR DUP3 SSTORE PUSH1 0x40 MLOAD SWAP3 SWAP4 POP SWAP2 PUSH32 0x8BE0079C531659141344CD1FD0A4F28419497F9722A3DAAFE3B4186F6B6457E0 SWAP1 DUP3 SWAP1 LOG3 POP PUSH1 0x60 DUP2 DUP2 SHL PUSH1 0x1 PUSH1 0x1 PUSH1 0x60 SHL SUB NOT AND PUSH1 0x80 SWAP1 DUP2 MSTORE PUSH1 0x40 DUP1 MLOAD PUSH2 0x120 DUP2 ADD DUP3 MSTORE PUSH1 0x14 DUP2 MSTORE PUSH1 0x3C PUSH1 0x20 DUP3 ADD MSTORE PUSH1 0x8 SWAP2 DUP2 ADD SWAP2 SWAP1 SWAP2 MSTORE PUSH1 0x1E SWAP3 DUP2 ADD SWAP3 SWAP1 SWAP3 MSTORE PUSH10 0x69E10DE76676D0800000 SWAP1 DUP3 ADD MSTORE PUSH10 0x37B20126DD6063C0000 PUSH1 0xA0 DUP3 ADD MSTORE PUSH1 0x0 PUSH1 0xC0 DUP3 ADD DUP2 SWAP1 MSTORE PUSH1 0xE0 DUP3 ADD DUP2 SWAP1 MSTORE PUSH2 0x100 DUP3 ADD DUP2 SWAP1 MSTORE PUSH1 0x7 SWAP1 DUP1 DUP2 MSTORE PUSH1 0x20 DUP1 DUP3 ADD SWAP3 SWAP1 SWAP3 MSTORE PUSH1 0x40 SWAP1 DUP2 ADD PUSH1 0x0 SWAP1 DUP2 KECCAK256 DUP5 MLOAD DUP2 SSTORE DUP5 DUP5 ADD MLOAD PUSH1 0x1 DUP1 DUP4 ADD DUP1 SLOAD DUP9 DUP8 ADD MLOAD PUSH1 0x60 DUP1 DUP12 ADD MLOAD PUSH1 0x1 PUSH1 0x1 PUSH1 0x40 SHL SUB SWAP1 DUP2 AND PUSH1 0x1 PUSH1 0x80 SHL MUL PUSH1 0x1 PUSH1 0x80 SHL PUSH1 0x1 PUSH1 0xC0 SHL SUB NOT SWAP4 DUP3 AND PUSH9 0x10000000000000000 MUL PUSH1 0x1 PUSH1 0x40 SHL PUSH1 0x1 PUSH1 0x80 SHL SUB NOT SWAP3 SWAP1 SWAP9 AND PUSH1 0x1 PUSH1 0x1 PUSH1 0x40 SHL SUB NOT SWAP1 SWAP6 AND SWAP5 SWAP1 SWAP5 OR AND SWAP6 SWAP1 SWAP6 OR AND OR SWAP1 SSTORE PUSH1 0x80 DUP1 DUP9 ADD MLOAD PUSH1 0x2 DUP6 ADD SSTORE PUSH1 0xA0 DUP1 DUP10 ADD MLOAD PUSH1 0x3 DUP7 ADD SSTORE PUSH1 0xC0 DUP1 DUP11 ADD MLOAD PUSH1 0x4 DUP8 ADD SSTORE PUSH1 0xE0 DUP1 DUP12 ADD MLOAD PUSH1 0x5 DUP9 ADD SSTORE PUSH2 0x100 SWAP11 DUP12 ADD MLOAD PUSH1 0x6 SWAP1 SWAP8 ADD SWAP7 SWAP1 SWAP7 SSTORE DUP8 MLOAD PUSH2 0x120 DUP2 ADD DUP10 MSTORE PUSH1 0x23 DUP2 MSTORE PUSH1 0x78 SWAP10 DUP2 ADD SWAP10 SWAP1 SWAP10 MSTORE PUSH1 0xE SWAP8 DUP10 ADD SWAP8 SWAP1 SWAP8 MSTORE PUSH1 0x3C SWAP4 DUP9 ADD SWAP4 SWAP1 SWAP4 MSTORE PUSH10 0xD3C21BCECCEDA1000000 SWAP1 DUP8 ADD MSTORE PUSH10 0x185DE0166C02DC610000 SWAP2 DUP7 ADD SWAP2 SWAP1 SWAP2 MSTORE SWAP3 DUP5 ADD DUP3 SWAP1 MSTORE DUP4 ADD DUP2 SWAP1 MSTORE SWAP3 DUP3 ADD DUP4 SWAP1 MSTORE SWAP1 SWAP2 PUSH1 0x7 SWAP2 DUP2 MSTORE PUSH1 0x20 DUP1 DUP3 ADD SWAP3 SWAP1 SWAP3 MSTORE PUSH1 0x40 SWAP1 DUP2 ADD PUSH1 0x0 SWAP1 DUP2 KECCAK256 DUP5 MLOAD DUP2 SSTORE DUP5 DUP5 ADD MLOAD PUSH1 0x1 DUP3 ADD DUP1 SLOAD DUP8 DUP7 ADD MLOAD PUSH1 0x60 DUP1 DUP11 ADD MLOAD PUSH1 0x1 PUSH1 0x1 PUSH1 0x40 SHL SUB SWAP1 DUP2 AND PUSH1 0x1 PUSH1 0x80 SHL MUL PUSH1 0x1 PUSH1 0x80 SHL PUSH1 0x1 PUSH1 0xC0 SHL SUB NOT SWAP4 DUP3 AND PUSH9 0x10000000000000000 MUL PUSH1 0x1 PUSH1 0x40 SHL PUSH1 0x1 PUSH1 0x80 SHL SUB NOT SWAP3 SWAP1 SWAP8 AND PUSH1 0x1 PUSH1 0x1 PUSH1 0x40 SHL SUB NOT SWAP1 SWAP6 AND SWAP5 SWAP1 SWAP5 OR AND SWAP5 SWAP1 SWAP5 OR AND OR SWAP1 SSTORE PUSH1 0x80 DUP1 DUP8 ADD MLOAD PUSH1 0x2 DUP1 DUP6 ADD SWAP2 SWAP1 SWAP2 SSTORE PUSH1 0xA0 DUP1 DUP10 ADD MLOAD PUSH1 0x3 DUP7 ADD SSTORE PUSH1 0xC0 DUP1 DUP11 ADD MLOAD PUSH1 0x4 DUP8 ADD SSTORE PUSH1 0xE0 DUP1 DUP12 ADD MLOAD PUSH1 0x5 DUP9 ADD SSTORE PUSH2 0x100 SWAP11 DUP12 ADD MLOAD PUSH1 0x6 SWAP1 SWAP8 ADD SWAP7 SWAP1 SWAP7 SSTORE DUP8 MLOAD PUSH2 0x120 DUP2 ADD DUP10 MSTORE PUSH1 0x32 DUP2 MSTORE PUSH1 0xB4 SWAP10 DUP2 ADD SWAP10 SWAP1 SWAP10 MSTORE PUSH1 0x14 SWAP8 DUP10 ADD SWAP8 SWAP1 SWAP8 MSTORE PUSH1 0x64 SWAP4 DUP9 ADD SWAP4 SWAP1 SWAP4 MSTORE PUSH10 0xD3C21BCECCEDA1000000 SWAP2 DUP8 ADD SWAP2 SWAP1 SWAP2 MSTORE PUSH10 0x3436E03F45DBBEFE0000 SWAP2 DUP7 ADD SWAP2 SWAP1 SWAP2 MSTORE SWAP3 DUP5 ADD DUP3 SWAP1 MSTORE DUP4 ADD DUP2 SWAP1 MSTORE SWAP3 DUP3 ADD DUP4 SWAP1 MSTORE SWAP1 SWAP2 PUSH1 0x7 SWAP2 DUP2 MSTORE PUSH1 0x20 DUP1 DUP3 ADD SWAP3 SWAP1 SWAP3 MSTORE PUSH1 0x40 SWAP1 DUP2 ADD PUSH1 0x0 KECCAK256 DUP4 MLOAD DUP2 SSTORE SWAP2 DUP4 ADD MLOAD PUSH1 0x1 DUP4 ADD DUP1 SLOAD SWAP3 DUP6 ADD MLOAD PUSH1 0x60 DUP7 ADD MLOAD PUSH1 0x1 PUSH1 0x1 PUSH1 0x40 SHL SUB NOT SWAP1 SWAP5 AND PUSH1 0x1 PUSH1 0x1 PUSH1 0x40 SHL SUB SWAP4 DUP5 AND OR PUSH1 0x1 PUSH1 0x40 SHL PUSH1 0x1 PUSH1 0x80 SHL SUB NOT AND PUSH9 0x10000000000000000 SWAP2 DUP5 AND SWAP2 SWAP1 SWAP2 MUL OR PUSH1 0x1 PUSH1 0x80 SHL PUSH1 0x1 PUSH1 0xC0 SHL SUB NOT AND PUSH1 0x1 PUSH1 0x80 SHL SWAP3 SWAP1 SWAP4 AND SWAP2 SWAP1 SWAP2 MUL SWAP2 SWAP1 SWAP2 OR SWAP1 SSTORE PUSH1 0x80 DUP3 ADD MLOAD PUSH1 0x2 DUP3 ADD SSTORE PUSH1 0xA0 DUP3 ADD MLOAD PUSH1 0x3 DUP3 ADD SSTORE PUSH1 0xC0 DUP3 ADD MLOAD PUSH1 0x4 DUP3 ADD SSTORE PUSH1 0xE0 DUP3 ADD MLOAD PUSH1 0x5 DUP3 ADD SSTORE PUSH2 0x100 SWAP1 SWAP2 ADD MLOAD PUSH1 0x6 SWAP1 SWAP2 ADD SSTORE POP PUSH3 0x465 JUMP JUMPDEST CALLER SWAP1 JUMP JUMPDEST PUSH1 0x0 PUSH1 0x20 DUP3 DUP5 SUB SLT ISZERO PUSH3 0x447 JUMPI DUP1 DUP2 REVERT JUMPDEST DUP2 MLOAD PUSH1 0x1 PUSH1 0x1 PUSH1 0xA0 SHL SUB DUP2 AND DUP2 EQ PUSH3 0x45E JUMPI DUP2 DUP3 REVERT JUMPDEST SWAP4 SWAP3 POP POP POP JUMP JUMPDEST PUSH1 0x80 MLOAD PUSH1 0x60 SHR PUSH2 0x2129 PUSH3 0x497 PUSH1 0x0 CODECOPY DUP1 PUSH2 0x866 MSTORE DUP1 PUSH2 0x93B MSTORE DUP1 PUSH2 0xC4D MSTORE DUP1 PUSH2 0x1285 MSTORE DUP1 PUSH2 0x1411 MSTORE POP PUSH2 0x2129 PUSH1 0x0 RETURN INVALID PUSH1 0x80 PUSH1 0x40 MSTORE CALLVALUE DUP1 ISZERO PUSH2 0x10 JUMPI PUSH1 0x0 DUP1 REVERT JUMPDEST POP PUSH1 0x4 CALLDATASIZE LT PUSH2 0x1AE JUMPI PUSH1 0x0 CALLDATALOAD PUSH1 0xE0 SHR DUP1 PUSH4 0x78E97925 GT PUSH2 0xEE JUMPI DUP1 PUSH4 0xC6AB5D90 GT PUSH2 0x97 JUMPI DUP1 PUSH4 0xEC94E0A3 GT PUSH2 0x71 JUMPI DUP1 PUSH4 0xEC94E0A3 EQ PUSH2 0x33E JUMPI DUP1 PUSH4 0xF291757F EQ PUSH2 0x351 JUMPI DUP1 PUSH4 0xF2FDE38B EQ PUSH2 0x364 JUMPI DUP1 PUSH4 0xFB87A635 EQ PUSH2 0x377 JUMPI PUSH2 0x1AE JUMP JUMPDEST DUP1 PUSH4 0xC6AB5D90 EQ PUSH2 0x310 JUMPI DUP1 PUSH4 0xDFEF5717 EQ PUSH2 0x323 JUMPI DUP1 PUSH4 0xE43252D7 EQ PUSH2 0x32B JUMPI PUSH2 0x1AE JUMP JUMPDEST DUP1 PUSH4 0x8DA5CB5B GT PUSH2 0xC8 JUMPI DUP1 PUSH4 0x8DA5CB5B EQ PUSH2 0x2D5 JUMPI DUP1 PUSH4 0xA6177139 EQ PUSH2 0x2EA JUMPI DUP1 PUSH4 0xBD18E0FD EQ PUSH2 0x2FD JUMPI PUSH2 0x1AE JUMP JUMPDEST DUP1 PUSH4 0x78E97925 EQ PUSH2 0x2A5 JUMPI DUP1 PUSH4 0x7BFA7F5F EQ PUSH2 0x2AD JUMPI DUP1 PUSH4 0x8A8A759E EQ PUSH2 0x2CD JUMPI PUSH2 0x1AE JUMP JUMPDEST DUP1 PUSH4 0x3AF32ABF GT PUSH2 0x15B JUMPI DUP1 PUSH4 0x63119960 GT PUSH2 0x135 JUMPI DUP1 PUSH4 0x63119960 EQ PUSH2 0x264 JUMPI DUP1 PUSH4 0x654CFDFF EQ PUSH2 0x277 JUMPI DUP1 PUSH4 0x6C281C05 EQ PUSH2 0x28A JUMPI DUP1 PUSH4 0x715018A6 EQ PUSH2 0x29D JUMPI PUSH2 0x1AE JUMP JUMPDEST DUP1 PUSH4 0x3AF32ABF EQ PUSH2 0x236 JUMPI DUP1 PUSH4 0x62107E8D EQ PUSH2 0x249 JUMPI DUP1 PUSH4 0x6269AFAB EQ PUSH2 0x251 JUMPI PUSH2 0x1AE JUMP JUMPDEST DUP1 PUSH4 0x25C065B1 GT PUSH2 0x18C JUMPI DUP1 PUSH4 0x25C065B1 EQ PUSH2 0x1F9 JUMPI DUP1 PUSH4 0x2A5BF6D2 EQ PUSH2 0x20E JUMPI DUP1 PUSH4 0x2F0C1ED5 EQ PUSH2 0x22E JUMPI PUSH2 0x1AE JUMP JUMPDEST DUP1 PUSH4 0x2FB0C5E EQ PUSH2 0x1B3 JUMPI DUP1 PUSH4 0xA3453D7 EQ PUSH2 0x1D1 JUMPI DUP1 PUSH4 0xC6F444B EQ PUSH2 0x1E6 JUMPI JUMPDEST PUSH1 0x0 DUP1 REVERT JUMPDEST PUSH2 0x1BB PUSH2 0x39F JUMP JUMPDEST PUSH1 0x40 MLOAD PUSH2 0x1C8 SWAP2 SWAP1 PUSH2 0x1C17 JUMP JUMPDEST PUSH1 0x40 MLOAD DUP1 SWAP2 SUB SWAP1 RETURN JUMPDEST PUSH2 0x1E4 PUSH2 0x1DF CALLDATASIZE PUSH1 0x4 PUSH2 0x1AF7 JUMP JUMPDEST PUSH2 0x3A8 JUMP JUMPDEST STOP JUMPDEST PUSH2 0x1E4 PUSH2 0x1F4 CALLDATASIZE PUSH1 0x4 PUSH2 0x1A1E JUMP JUMPDEST PUSH2 0x3E8 JUMP JUMPDEST PUSH2 0x201 PUSH2 0x464 JUMP JUMPDEST PUSH1 0x40 MLOAD PUSH2 0x1C8 SWAP2 SWAP1 PUSH2 0x2016 JUMP JUMPDEST PUSH2 0x221 PUSH2 0x21C CALLDATASIZE PUSH1 0x4 PUSH2 0x19C0 JUMP JUMPDEST PUSH2 0x471 JUMP JUMPDEST PUSH1 0x40 MLOAD PUSH2 0x1C8 SWAP2 SWAP1 PUSH2 0x1BB6 JUMP JUMPDEST PUSH2 0x201 PUSH2 0x51C JUMP JUMPDEST PUSH2 0x1BB PUSH2 0x244 CALLDATASIZE PUSH1 0x4 PUSH2 0x19C0 JUMP JUMPDEST PUSH2 0x522 JUMP JUMPDEST PUSH2 0x201 PUSH2 0x5D0 JUMP JUMPDEST PUSH2 0x1E4 PUSH2 0x25F CALLDATASIZE PUSH1 0x4 PUSH2 0x19C0 JUMP JUMPDEST PUSH2 0x5D6 JUMP JUMPDEST PUSH2 0x201 PUSH2 0x272 CALLDATASIZE PUSH1 0x4 PUSH2 0x19DB JUMP JUMPDEST PUSH2 0x684 JUMP JUMPDEST PUSH2 0x1E4 PUSH2 0x285 CALLDATASIZE PUSH1 0x4 PUSH2 0x1B27 JUMP JUMPDEST PUSH2 0x7F1 JUMP JUMPDEST PUSH2 0x201 PUSH2 0x298 CALLDATASIZE PUSH1 0x4 PUSH2 0x19DB JUMP JUMPDEST PUSH2 0xCDE JUMP JUMPDEST PUSH2 0x1E4 PUSH2 0xDAE JUMP JUMPDEST PUSH2 0x201 PUSH2 0xE44 JUMP JUMPDEST PUSH2 0x2C0 PUSH2 0x2BB CALLDATASIZE PUSH1 0x4 PUSH2 0x1B27 JUMP JUMPDEST PUSH2 0xE4A JUMP JUMPDEST PUSH1 0x40 MLOAD PUSH2 0x1C8 SWAP2 SWAP1 PUSH2 0x207C JUMP JUMPDEST PUSH2 0x201 PUSH2 0xF61 JUMP JUMPDEST PUSH2 0x2DD PUSH2 0xF6F JUMP JUMPDEST PUSH1 0x40 MLOAD PUSH2 0x1C8 SWAP2 SWAP1 PUSH2 0x1B4B JUMP JUMPDEST PUSH2 0x1E4 PUSH2 0x2F8 CALLDATASIZE PUSH1 0x4 PUSH2 0x1A1E JUMP JUMPDEST PUSH2 0xF7E JUMP JUMPDEST PUSH2 0x201 PUSH2 0x30B CALLDATASIZE PUSH1 0x4 PUSH2 0x1ADB JUMP JUMPDEST PUSH2 0xFED JUMP JUMPDEST PUSH2 0x1E4 PUSH2 0x31E CALLDATASIZE PUSH1 0x4 PUSH2 0x1ADB JUMP JUMPDEST PUSH2 0x1023 JUMP JUMPDEST PUSH2 0x1E4 PUSH2 0x13AF JUMP JUMPDEST PUSH2 0x1E4 PUSH2 0x339 CALLDATASIZE PUSH1 0x4 PUSH2 0x19C0 JUMP JUMPDEST PUSH2 0x15F3 JUMP JUMPDEST PUSH2 0x201 PUSH2 0x34C CALLDATASIZE PUSH1 0x4 PUSH2 0x1B27 JUMP JUMPDEST PUSH2 0x16A7 JUMP JUMPDEST PUSH2 0x201 PUSH2 0x35F CALLDATASIZE PUSH1 0x4 PUSH2 0x1ADB JUMP JUMPDEST PUSH2 0x17AE JUMP JUMPDEST PUSH2 0x1E4 PUSH2 0x372 CALLDATASIZE PUSH1 0x4 PUSH2 0x19C0 JUMP JUMPDEST PUSH2 0x17E4 JUMP JUMPDEST PUSH2 0x38A PUSH2 0x385 CALLDATASIZE PUSH1 0x4 PUSH2 0x1ADB JUMP JUMPDEST PUSH2 0x18B1 JUMP JUMPDEST PUSH1 0x40 MLOAD PUSH2 0x1C8 SWAP10 SWAP9 SWAP8 SWAP7 SWAP6 SWAP5 SWAP4 SWAP3 SWAP2 SWAP1 PUSH2 0x202D JUMP JUMPDEST PUSH1 0x4 SLOAD PUSH1 0xFF AND DUP2 JUMP JUMPDEST PUSH1 0x3 DUP2 SWAP1 SSTORE PUSH1 0x40 MLOAD PUSH32 0xE438B1E59C6066523A5AB53E2973F73B565E85312EBF606BAE7FE8E006D255CE SWAP1 PUSH2 0x3DD SWAP1 DUP4 SWAP1 PUSH2 0x2016 JUMP JUMPDEST PUSH1 0x40 MLOAD DUP1 SWAP2 SUB SWAP1 LOG1 POP JUMP JUMPDEST PUSH2 0x3F0 PUSH2 0x1910 JUMP JUMPDEST PUSH1 0x1 PUSH1 0x1 PUSH1 0xA0 SHL SUB AND PUSH2 0x401 PUSH2 0xF6F JUMP JUMPDEST PUSH1 0x1 PUSH1 0x1 PUSH1 0xA0 SHL SUB AND EQ PUSH2 0x430 JUMPI PUSH1 0x40 MLOAD PUSH3 0x461BCD PUSH1 0xE5 SHL DUP2 MSTORE PUSH1 0x4 ADD PUSH2 0x427 SWAP1 PUSH2 0x1E4B JUMP JUMPDEST PUSH1 0x40 MLOAD DUP1 SWAP2 SUB SWAP1 REVERT JUMPDEST PUSH1 0x0 JUMPDEST DUP2 MLOAD DUP2 LT ISZERO PUSH2 0x460 JUMPI PUSH2 0x458 DUP3 DUP3 DUP2 MLOAD DUP2 LT PUSH2 0x44B JUMPI INVALID JUMPDEST PUSH1 0x20 MUL PUSH1 0x20 ADD ADD MLOAD PUSH2 0x5D6 JUMP JUMPDEST PUSH1 0x1 ADD PUSH2 0x433 JUMP JUMPDEST POP POP JUMP JUMPDEST PUSH9 0x6C6B935B8BBD400000 DUP2 JUMP JUMPDEST PUSH1 0x1 PUSH1 0x1 PUSH1 0xA0 SHL SUB DUP2 AND PUSH1 0x0 SWAP1 DUP2 MSTORE PUSH1 0x8 PUSH1 0x20 SWAP1 DUP2 MSTORE PUSH1 0x40 DUP1 DUP4 KECCAK256 DUP1 SLOAD DUP3 MLOAD DUP2 DUP6 MUL DUP2 ADD DUP6 ADD SWAP1 SWAP4 MSTORE DUP1 DUP4 MSTORE PUSH1 0x60 SWAP5 SWAP3 SWAP4 SWAP2 SWAP3 SWAP1 SWAP2 DUP5 ADD JUMPDEST DUP3 DUP3 LT ISZERO PUSH2 0x510 JUMPI PUSH1 0x0 DUP5 DUP2 MSTORE PUSH1 0x20 SWAP1 KECCAK256 PUSH1 0x40 DUP1 MLOAD PUSH1 0x60 DUP2 ADD SWAP1 SWAP2 MSTORE PUSH1 0x3 DUP5 MUL SWAP1 SWAP2 ADD DUP1 SLOAD DUP3 SWAP1 PUSH1 0xFF AND PUSH1 0x2 DUP2 GT ISZERO PUSH2 0x4DE JUMPI INVALID JUMPDEST PUSH1 0x2 DUP2 GT ISZERO PUSH2 0x4E9 JUMPI INVALID JUMPDEST DUP2 MSTORE PUSH1 0x20 ADD PUSH1 0x1 DUP3 ADD SLOAD DUP2 MSTORE PUSH1 0x20 ADD PUSH1 0x2 DUP3 ADD SLOAD DUP2 MSTORE POP POP DUP2 MSTORE PUSH1 0x20 ADD SWAP1 PUSH1 0x1 ADD SWAP1 PUSH2 0x4A9 JUMP JUMPDEST POP POP POP POP SWAP1 POP JUMPDEST SWAP2 SWAP1 POP JUMP JUMPDEST PUSH1 0x3 SLOAD DUP2 JUMP JUMPDEST PUSH1 0x1 PUSH1 0x1 PUSH1 0xA0 SHL SUB DUP2 AND PUSH1 0x0 SWAP1 DUP2 MSTORE PUSH1 0x1 PUSH1 0x20 MSTORE PUSH1 0x40 DUP2 KECCAK256 SLOAD PUSH1 0xFF AND DUP1 PUSH2 0x5CA JUMPI POP PUSH1 0x3 SLOAD PUSH1 0x2 SLOAD PUSH1 0x40 MLOAD PUSH4 0x70A08231 PUSH1 0xE0 SHL DUP2 MSTORE PUSH1 0x1 PUSH1 0x1 PUSH1 0xA0 SHL SUB SWAP1 SWAP2 AND SWAP1 PUSH4 0x70A08231 SWAP1 PUSH2 0x577 SWAP1 DUP7 SWAP1 PUSH1 0x4 ADD PUSH2 0x1B4B JUMP JUMPDEST PUSH1 0x20 PUSH1 0x40 MLOAD DUP1 DUP4 SUB DUP2 DUP7 DUP1 EXTCODESIZE ISZERO DUP1 ISZERO PUSH2 0x58F JUMPI PUSH1 0x0 DUP1 REVERT JUMPDEST POP GAS STATICCALL ISZERO DUP1 ISZERO PUSH2 0x5A3 JUMPI RETURNDATASIZE PUSH1 0x0 DUP1 RETURNDATACOPY RETURNDATASIZE PUSH1 0x0 REVERT JUMPDEST POP POP POP POP PUSH1 0x40 MLOAD RETURNDATASIZE PUSH1 0x1F NOT PUSH1 0x1F DUP3 ADD AND DUP3 ADD DUP1 PUSH1 0x40 MSTORE POP DUP2 ADD SWAP1 PUSH2 0x5C7 SWAP2 SWAP1 PUSH2 0x1B0F JUMP JUMPDEST LT ISZERO JUMPDEST SWAP3 SWAP2 POP POP JUMP JUMPDEST PUSH1 0x6 SLOAD DUP2 JUMP JUMPDEST PUSH2 0x5DE PUSH2 0x1910 JUMP JUMPDEST PUSH1 0x1 PUSH1 0x1 PUSH1 0xA0 SHL SUB AND PUSH2 0x5EF PUSH2 0xF6F JUMP JUMPDEST PUSH1 0x1 PUSH1 0x1 PUSH1 0xA0 SHL SUB AND EQ PUSH2 0x615 JUMPI PUSH1 0x40 MLOAD PUSH3 0x461BCD PUSH1 0xE5 SHL DUP2 MSTORE PUSH1 0x4 ADD PUSH2 0x427 SWAP1 PUSH2 0x1E4B JUMP JUMPDEST PUSH1 0x1 PUSH1 0x1 PUSH1 0xA0 SHL SUB DUP2 AND PUSH2 0x63B JUMPI PUSH1 0x40 MLOAD PUSH3 0x461BCD PUSH1 0xE5 SHL DUP2 MSTORE PUSH1 0x4 ADD PUSH2 0x427 SWAP1 PUSH2 0x1FA8 JUMP JUMPDEST PUSH1 0x1 PUSH1 0x1 PUSH1 0xA0 SHL SUB DUP2 AND PUSH1 0x0 DUP2 DUP2 MSTORE PUSH1 0x1 PUSH1 0x20 MSTORE PUSH1 0x40 DUP1 DUP3 KECCAK256 DUP1 SLOAD PUSH1 0xFF NOT AND SWAP1 SSTORE MLOAD PUSH32 0xCDD2E9B91A56913D370075169CEFA1602BA36BE5301664F752192BB1709DF757 SWAP2 SWAP1 LOG2 POP JUMP JUMPDEST PUSH1 0x0 DUP1 PUSH1 0x0 JUMPDEST PUSH1 0x1 PUSH1 0x1 PUSH1 0xA0 SHL SUB DUP6 AND PUSH1 0x0 SWAP1 DUP2 MSTORE PUSH1 0x8 PUSH1 0x20 MSTORE PUSH1 0x40 SWAP1 KECCAK256 SLOAD DUP2 LT ISZERO PUSH2 0x7E9 JUMPI DUP4 PUSH1 0x2 DUP2 GT ISZERO PUSH2 0x6B6 JUMPI INVALID JUMPDEST PUSH1 0x1 PUSH1 0x1 PUSH1 0xA0 SHL SUB DUP7 AND PUSH1 0x0 SWAP1 DUP2 MSTORE PUSH1 0x8 PUSH1 0x20 MSTORE PUSH1 0x40 SWAP1 KECCAK256 DUP1 SLOAD DUP4 SWAP1 DUP2 LT PUSH2 0x6DA JUMPI INVALID JUMPDEST PUSH1 0x0 SWAP2 DUP3 MSTORE PUSH1 0x20 SWAP1 SWAP2 KECCAK256 PUSH1 0x3 SWAP1 SWAP2 MUL ADD SLOAD PUSH1 0xFF AND PUSH1 0x2 DUP2 GT ISZERO PUSH2 0x6F9 JUMPI INVALID JUMPDEST EQ ISZERO PUSH2 0x7E1 JUMPI PUSH1 0x1 PUSH1 0x1 PUSH1 0xA0 SHL SUB DUP6 AND PUSH1 0x0 SWAP1 DUP2 MSTORE PUSH1 0x8 PUSH1 0x20 MSTORE PUSH1 0x40 DUP2 KECCAK256 DUP1 SLOAD PUSH3 0x15180 SWAP2 SWAP1 DUP5 SWAP1 DUP2 LT PUSH2 0x729 JUMPI INVALID JUMPDEST SWAP1 PUSH1 0x0 MSTORE PUSH1 0x20 PUSH1 0x0 KECCAK256 SWAP1 PUSH1 0x3 MUL ADD PUSH1 0x2 ADD SLOAD TIMESTAMP SUB DUP2 PUSH2 0x744 JUMPI INVALID JUMPDEST DIV SWAP1 POP PUSH1 0x0 PUSH2 0x753 DUP3 DUP8 PUSH2 0x16A7 JUMP JUMPDEST SWAP1 POP PUSH1 0x0 PUSH2 0x761 DUP4 DUP9 PUSH2 0xE4A JUMP JUMPDEST SWAP1 POP PUSH2 0x7DB PUSH10 0x7BAAB4146B63DD00000 DUP3 PUSH8 0xFFFFFFFFFFFFFFFF AND DUP5 PUSH1 0x8 PUSH1 0x0 DUP14 PUSH1 0x1 PUSH1 0x1 PUSH1 0xA0 SHL SUB AND PUSH1 0x1 PUSH1 0x1 PUSH1 0xA0 SHL SUB AND DUP2 MSTORE PUSH1 0x20 ADD SWAP1 DUP2 MSTORE PUSH1 0x20 ADD PUSH1 0x0 KECCAK256 DUP9 DUP2 SLOAD DUP2 LT PUSH2 0x7AD JUMPI INVALID JUMPDEST SWAP1 PUSH1 0x0 MSTORE PUSH1 0x20 PUSH1 0x0 KECCAK256 SWAP1 PUSH1 0x3 MUL ADD PUSH1 0x1 ADD SLOAD PUSH8 0xDE0B6B3A7640000 MUL MUL MUL DUP2 PUSH2 0x7D2 JUMPI INVALID JUMPDEST DUP8 SWAP2 SWAP1 DIV PUSH2 0x1914 JUMP JUMPDEST SWAP5 POP POP POP POP JUMPDEST PUSH1 0x1 ADD PUSH2 0x68A JUMP JUMPDEST POP SWAP4 SWAP3 POP POP POP JUMP JUMPDEST CALLER PUSH1 0x0 DUP2 DUP2 MSTORE PUSH1 0x1 PUSH1 0x20 DUP2 SWAP1 MSTORE PUSH1 0x40 SWAP1 SWAP2 KECCAK256 SLOAD PUSH1 0xFF AND ISZERO ISZERO EQ PUSH2 0x826 JUMPI PUSH1 0x40 MLOAD PUSH3 0x461BCD PUSH1 0xE5 SHL DUP2 MSTORE PUSH1 0x4 ADD PUSH2 0x427 SWAP1 PUSH2 0x1F14 JUMP JUMPDEST PUSH1 0x4 SLOAD PUSH1 0xFF AND ISZERO ISZERO PUSH1 0x1 EQ PUSH2 0x84D JUMPI PUSH1 0x40 MLOAD PUSH3 0x461BCD PUSH1 0xE5 SHL DUP2 MSTORE PUSH1 0x4 ADD PUSH2 0x427 SWAP1 PUSH2 0x1DB7 JUMP JUMPDEST PUSH1 0x40 MLOAD PUSH4 0x70A08231 PUSH1 0xE0 SHL DUP2 MSTORE DUP4 SWAP1 PUSH1 0x1 PUSH1 0x1 PUSH1 0xA0 SHL SUB PUSH32 0x0 AND SWAP1 PUSH4 0x70A08231 SWAP1 PUSH2 0x89B SWAP1 CALLER SWAP1 PUSH1 0x4 ADD PUSH2 0x1B4B JUMP JUMPDEST PUSH1 0x20 PUSH1 0x40 MLOAD DUP1 DUP4 SUB DUP2 DUP7 DUP1 EXTCODESIZE ISZERO DUP1 ISZERO PUSH2 0x8B3 JUMPI PUSH1 0x0 DUP1 REVERT JUMPDEST POP GAS STATICCALL ISZERO DUP1 ISZERO PUSH2 0x8C7 JUMPI RETURNDATASIZE PUSH1 0x0 DUP1 RETURNDATACOPY RETURNDATASIZE PUSH1 0x0 REVERT JUMPDEST POP POP POP POP PUSH1 0x40 MLOAD RETURNDATASIZE PUSH1 0x1F NOT PUSH1 0x1F DUP3 ADD AND DUP3 ADD DUP1 PUSH1 0x40 MSTORE POP DUP2 ADD SWAP1 PUSH2 0x8EB SWAP2 SWAP1 PUSH2 0x1B0F JUMP JUMPDEST LT ISZERO PUSH2 0x909 JUMPI PUSH1 0x40 MLOAD PUSH3 0x461BCD PUSH1 0xE5 SHL DUP2 MSTORE PUSH1 0x4 ADD PUSH2 0x427 SWAP1 PUSH2 0x1CB5 JUMP JUMPDEST PUSH1 0x40 MLOAD PUSH32 0xDD62ED3E00000000000000000000000000000000000000000000000000000000 DUP2 MSTORE DUP4 SWAP1 PUSH1 0x1 PUSH1 0x1 PUSH1 0xA0 SHL SUB PUSH32 0x0 AND SWAP1 PUSH4 0xDD62ED3E SWAP1 PUSH2 0x972 SWAP1 CALLER SWAP1 ADDRESS SWAP1 PUSH1 0x4 ADD PUSH2 0x1B5F JUMP JUMPDEST PUSH1 0x20 PUSH1 0x40 MLOAD DUP1 DUP4 SUB DUP2 DUP7 DUP1 EXTCODESIZE ISZERO DUP1 ISZERO PUSH2 0x98A JUMPI PUSH1 0x0 DUP1 REVERT JUMPDEST POP GAS STATICCALL ISZERO DUP1 ISZERO PUSH2 0x99E JUMPI RETURNDATASIZE PUSH1 0x0 DUP1 RETURNDATACOPY RETURNDATASIZE PUSH1 0x0 REVERT JUMPDEST POP POP POP POP PUSH1 0x40 MLOAD RETURNDATASIZE PUSH1 0x1F NOT PUSH1 0x1F DUP3 ADD AND DUP3 ADD DUP1 PUSH1 0x40 MSTORE POP DUP2 ADD SWAP1 PUSH2 0x9C2 SWAP2 SWAP1 PUSH2 0x1B0F JUMP JUMPDEST LT ISZERO PUSH2 0x9E0 JUMPI PUSH1 0x40 MLOAD PUSH3 0x461BCD PUSH1 0xE5 SHL DUP2 MSTORE PUSH1 0x4 ADD PUSH2 0x427 SWAP1 PUSH2 0x1FDF JUMP JUMPDEST PUSH9 0x6C6B935B8BBD400000 DUP4 LT ISZERO PUSH2 0xA09 JUMPI PUSH1 0x40 MLOAD PUSH3 0x461BCD PUSH1 0xE5 SHL DUP2 MSTORE PUSH1 0x4 ADD PUSH2 0x427 SWAP1 PUSH2 0x1E80 JUMP JUMPDEST PUSH1 0x7 PUSH1 0x0 DUP4 PUSH1 0x2 DUP2 GT ISZERO PUSH2 0xA19 JUMPI INVALID JUMPDEST PUSH1 0x2 DUP2 GT ISZERO PUSH2 0xA24 JUMPI INVALID JUMPDEST DUP2 MSTORE PUSH1 0x20 ADD SWAP1 DUP2 MSTORE PUSH1 0x20 ADD PUSH1 0x0 KECCAK256 PUSH1 0x2 ADD SLOAD PUSH1 0x7 PUSH1 0x0 DUP5 PUSH1 0x2 DUP2 GT ISZERO PUSH2 0xA46 JUMPI INVALID JUMPDEST PUSH1 0x2 DUP2 GT ISZERO PUSH2 0xA51 JUMPI INVALID JUMPDEST DUP2 MSTORE PUSH1 0x20 ADD SWAP1 DUP2 MSTORE PUSH1 0x20 ADD PUSH1 0x0 KECCAK256 PUSH1 0x6 ADD SLOAD LT PUSH2 0xA80 JUMPI PUSH1 0x40 MLOAD PUSH3 0x461BCD PUSH1 0xE5 SHL DUP2 MSTORE PUSH1 0x4 ADD PUSH2 0x427 SWAP1 PUSH2 0x1DEE JUMP JUMPDEST PUSH1 0x6 SLOAD TIMESTAMP LT PUSH2 0xAA1 JUMPI PUSH1 0x40 MLOAD PUSH3 0x461BCD PUSH1 0xE5 SHL DUP2 MSTORE PUSH1 0x4 ADD PUSH2 0x427 SWAP1 PUSH2 0x1EB7 JUMP JUMPDEST PUSH2 0xAE0 DUP4 PUSH1 0x7 PUSH1 0x0 DUP6 PUSH1 0x2 DUP2 GT ISZERO PUSH2 0xAB5 JUMPI INVALID JUMPDEST PUSH1 0x2 DUP2 GT ISZERO PUSH2 0xAC0 JUMPI INVALID JUMPDEST DUP2 MSTORE PUSH1 0x20 ADD SWAP1 DUP2 MSTORE PUSH1 0x20 ADD PUSH1 0x0 KECCAK256 PUSH1 0x6 ADD SLOAD PUSH2 0x1914 SWAP1 SWAP2 SWAP1 PUSH4 0xFFFFFFFF AND JUMP JUMPDEST PUSH1 0x7 PUSH1 0x0 DUP5 PUSH1 0x2 DUP2 GT ISZERO PUSH2 0xAF0 JUMPI INVALID JUMPDEST PUSH1 0x2 DUP2 GT ISZERO PUSH2 0xAFB JUMPI INVALID JUMPDEST DUP2 MSTORE PUSH1 0x20 ADD SWAP1 DUP2 MSTORE PUSH1 0x20 ADD PUSH1 0x0 KECCAK256 PUSH1 0x6 ADD DUP2 SWAP1 SSTORE POP PUSH2 0xB4F DUP4 PUSH1 0x7 PUSH1 0x0 DUP6 PUSH1 0x2 DUP2 GT ISZERO PUSH2 0xB24 JUMPI INVALID JUMPDEST PUSH1 0x2 DUP2 GT ISZERO PUSH2 0xB2F JUMPI INVALID JUMPDEST DUP2 MSTORE PUSH1 0x20 ADD SWAP1 DUP2 MSTORE PUSH1 0x20 ADD PUSH1 0x0 KECCAK256 PUSH1 0x5 ADD SLOAD PUSH2 0x1914 SWAP1 SWAP2 SWAP1 PUSH4 0xFFFFFFFF AND JUMP JUMPDEST PUSH1 0x7 PUSH1 0x0 DUP5 PUSH1 0x2 DUP2 GT ISZERO PUSH2 0xB5F JUMPI INVALID JUMPDEST PUSH1 0x2 DUP2 GT ISZERO PUSH2 0xB6A JUMPI INVALID JUMPDEST DUP2 MSTORE PUSH1 0x20 ADD SWAP1 DUP2 MSTORE PUSH1 0x20 ADD PUSH1 0x0 KECCAK256 PUSH1 0x5 ADD DUP2 SWAP1 SSTORE POP PUSH1 0x8 PUSH1 0x0 CALLER PUSH1 0x1 PUSH1 0x1 PUSH1 0xA0 SHL SUB AND PUSH1 0x1 PUSH1 0x1 PUSH1 0xA0 SHL SUB AND DUP2 MSTORE PUSH1 0x20 ADD SWAP1 DUP2 MSTORE PUSH1 0x20 ADD PUSH1 0x0 KECCAK256 PUSH1 0x40 MLOAD DUP1 PUSH1 0x60 ADD PUSH1 0x40 MSTORE DUP1 DUP5 PUSH1 0x2 DUP2 GT ISZERO PUSH2 0xBBB JUMPI INVALID JUMPDEST DUP2 MSTORE PUSH1 0x20 DUP1 DUP3 ADD DUP8 SWAP1 MSTORE TIMESTAMP PUSH1 0x40 SWAP1 SWAP3 ADD SWAP2 SWAP1 SWAP2 MSTORE DUP3 SLOAD PUSH1 0x1 DUP2 DUP2 ADD DUP6 SSTORE PUSH1 0x0 SWAP5 DUP6 MSTORE SWAP2 SWAP1 SWAP4 KECCAK256 DUP3 MLOAD PUSH1 0x3 SWAP1 SWAP5 MUL ADD DUP1 SLOAD SWAP3 SWAP4 SWAP1 SWAP3 SWAP1 SWAP2 DUP4 SWAP2 PUSH1 0xFF NOT AND SWAP1 DUP4 PUSH1 0x2 DUP2 GT ISZERO PUSH2 0xC04 JUMPI INVALID JUMPDEST MUL OR SWAP1 SSTORE POP PUSH1 0x20 DUP3 ADD MLOAD PUSH1 0x1 DUP3 ADD SSTORE PUSH1 0x40 SWAP2 DUP3 ADD MLOAD PUSH1 0x2 SWAP1 SWAP2 ADD SSTORE MLOAD PUSH32 0x23B872DD00000000000000000000000000000000000000000000000000000000 DUP2 MSTORE PUSH1 0x1 PUSH1 0x1 PUSH1 0xA0 SHL SUB PUSH32 0x0 AND SWAP1 PUSH4 0x23B872DD SWAP1 PUSH2 0xC86 SWAP1 CALLER SWAP1 ADDRESS SWAP1 DUP9 SWAP1 PUSH1 0x4 ADD PUSH2 0x1B79 JUMP JUMPDEST PUSH1 0x20 PUSH1 0x40 MLOAD DUP1 DUP4 SUB DUP2 PUSH1 0x0 DUP8 DUP1 EXTCODESIZE ISZERO DUP1 ISZERO PUSH2 0xCA0 JUMPI PUSH1 0x0 DUP1 REVERT JUMPDEST POP GAS CALL ISZERO DUP1 ISZERO PUSH2 0xCB4 JUMPI RETURNDATASIZE PUSH1 0x0 DUP1 RETURNDATACOPY RETURNDATASIZE PUSH1 0x0 REVERT JUMPDEST POP POP POP POP PUSH1 0x40 MLOAD RETURNDATASIZE PUSH1 0x1F NOT PUSH1 0x1F DUP3 ADD AND DUP3 ADD DUP1 PUSH1 0x40 MSTORE POP DUP2 ADD SWAP1 PUSH2 0xCD8 SWAP2 SWAP1 PUSH2 0x1ABB JUMP JUMPDEST POP POP POP POP JUMP JUMPDEST PUSH1 0x0 DUP1 PUSH1 0x0 JUMPDEST PUSH1 0x1 PUSH1 0x1 PUSH1 0xA0 SHL SUB DUP6 AND PUSH1 0x0 SWAP1 DUP2 MSTORE PUSH1 0x8 PUSH1 0x20 MSTORE PUSH1 0x40 SWAP1 KECCAK256 SLOAD DUP2 LT ISZERO PUSH2 0x7E9 JUMPI DUP4 PUSH1 0x2 DUP2 GT ISZERO PUSH2 0xD10 JUMPI INVALID JUMPDEST PUSH1 0x1 PUSH1 0x1 PUSH1 0xA0 SHL SUB DUP7 AND PUSH1 0x0 SWAP1 DUP2 MSTORE PUSH1 0x8 PUSH1 0x20 MSTORE PUSH1 0x40 SWAP1 KECCAK256 DUP1 SLOAD DUP4 SWAP1 DUP2 LT PUSH2 0xD34 JUMPI INVALID JUMPDEST PUSH1 0x0 SWAP2 DUP3 MSTORE PUSH1 0x20 SWAP1 SWAP2 KECCAK256 PUSH1 0x3 SWAP1 SWAP2 MUL ADD SLOAD PUSH1 0xFF AND PUSH1 0x2 DUP2 GT ISZERO PUSH2 0xD53 JUMPI INVALID JUMPDEST EQ ISZERO PUSH2 0xDA6 JUMPI PUSH1 0x1 PUSH1 0x1 PUSH1 0xA0 SHL SUB DUP6 AND PUSH1 0x0 SWAP1 DUP2 MSTORE PUSH1 0x8 PUSH1 0x20 MSTORE PUSH1 0x40 SWAP1 KECCAK256 DUP1 SLOAD PUSH2 0xDA3 SWAP2 SWAP1 DUP4 SWAP1 DUP2 LT PUSH2 0xD82 JUMPI INVALID JUMPDEST SWAP1 PUSH1 0x0 MSTORE PUSH1 0x20 PUSH1 0x0 KECCAK256 SWAP1 PUSH1 0x3 MUL ADD PUSH1 0x1 ADD SLOAD DUP4 PUSH2 0x1914 SWAP1 SWAP2 SWAP1 PUSH4 0xFFFFFFFF AND JUMP JUMPDEST SWAP2 POP JUMPDEST PUSH1 0x1 ADD PUSH2 0xCE4 JUMP JUMPDEST PUSH2 0xDB6 PUSH2 0x1910 JUMP JUMPDEST PUSH1 0x1 PUSH1 0x1 PUSH1 0xA0 SHL SUB AND PUSH2 0xDC7 PUSH2 0xF6F JUMP JUMPDEST PUSH1 0x1 PUSH1 0x1 PUSH1 0xA0 SHL SUB AND EQ PUSH2 0xDED JUMPI PUSH1 0x40 MLOAD PUSH3 0x461BCD PUSH1 0xE5 SHL DUP2 MSTORE PUSH1 0x4 ADD PUSH2 0x427 SWAP1 PUSH2 0x1E4B JUMP JUMPDEST PUSH1 0x0 DUP1 SLOAD PUSH1 0x40 MLOAD PUSH1 0x1 PUSH1 0x1 PUSH1 0xA0 SHL SUB SWAP1 SWAP2 AND SWAP1 PUSH32 0x8BE0079C531659141344CD1FD0A4F28419497F9722A3DAAFE3B4186F6B6457E0 SWAP1 DUP4 SWAP1 LOG3 PUSH1 0x0 DUP1 SLOAD PUSH20 0xFFFFFFFFFFFFFFFFFFFFFFFFFFFFFFFFFFFFFFFF NOT AND SWAP1 SSTORE JUMP JUMPDEST PUSH1 0x5 SLOAD DUP2 JUMP JUMPDEST PUSH1 0x0 PUSH1 0x7 PUSH1 0x0 DUP4 PUSH1 0x2 DUP2 GT ISZERO PUSH2 0xE5C JUMPI INVALID JUMPDEST PUSH1 0x2 DUP2 GT ISZERO PUSH2 0xE67 JUMPI INVALID JUMPDEST DUP2 MSTORE PUSH1 0x20 DUP2 ADD SWAP2 SWAP1 SWAP2 MSTORE PUSH1 0x40 ADD PUSH1 0x0 KECCAK256 PUSH1 0x1 ADD SLOAD PUSH8 0xFFFFFFFFFFFFFFFF AND DUP4 LT PUSH2 0xECB JUMPI PUSH1 0x7 PUSH1 0x0 DUP4 PUSH1 0x2 DUP2 GT ISZERO PUSH2 0xE9B JUMPI INVALID JUMPDEST PUSH1 0x2 DUP2 GT ISZERO PUSH2 0xEA6 JUMPI INVALID JUMPDEST DUP2 MSTORE PUSH1 0x20 DUP2 ADD SWAP2 SWAP1 SWAP2 MSTORE PUSH1 0x40 ADD PUSH1 0x0 KECCAK256 PUSH1 0x1 ADD SLOAD PUSH8 0xFFFFFFFFFFFFFFFF AND SWAP1 POP PUSH2 0x5CA JUMP JUMPDEST PUSH1 0x7 PUSH1 0x0 DUP4 PUSH1 0x2 DUP2 GT ISZERO PUSH2 0xEDB JUMPI INVALID JUMPDEST PUSH1 0x2 DUP2 GT ISZERO PUSH2 0xEE6 JUMPI INVALID JUMPDEST DUP2 MSTORE PUSH1 0x20 DUP2 ADD SWAP2 SWAP1 SWAP2 MSTORE PUSH1 0x40 ADD PUSH1 0x0 KECCAK256 PUSH1 0x1 ADD SLOAD PUSH1 0x1 PUSH1 0x80 SHL SWAP1 DIV PUSH8 0xFFFFFFFFFFFFFFFF AND DUP4 LT PUSH2 0xF58 JUMPI PUSH1 0x7 PUSH1 0x0 DUP4 PUSH1 0x2 DUP2 GT ISZERO PUSH2 0xF21 JUMPI INVALID JUMPDEST PUSH1 0x2 DUP2 GT ISZERO PUSH2 0xF2C JUMPI INVALID JUMPDEST DUP2 MSTORE PUSH1 0x20 DUP2 ADD SWAP2 SWAP1 SWAP2 MSTORE PUSH1 0x40 ADD PUSH1 0x0 KECCAK256 PUSH1 0x1 ADD SLOAD PUSH1 0x1 PUSH1 0x80 SHL SWAP1 DIV PUSH8 0xFFFFFFFFFFFFFFFF AND SWAP1 POP PUSH2 0x5CA JUMP JUMPDEST POP PUSH1 0x0 SWAP3 SWAP2 POP POP JUMP JUMPDEST PUSH10 0x500FE0681FB4A19B0000 DUP2 JUMP JUMPDEST PUSH1 0x0 SLOAD PUSH1 0x1 PUSH1 0x1 PUSH1 0xA0 SHL SUB AND SWAP1 JUMP JUMPDEST PUSH2 0xF86 PUSH2 0x1910 JUMP JUMPDEST PUSH1 0x1 PUSH1 0x1 PUSH1 0xA0 SHL SUB AND PUSH2 0xF97 PUSH2 0xF6F JUMP JUMPDEST PUSH1 0x1 PUSH1 0x1 PUSH1 0xA0 SHL SUB AND EQ PUSH2 0xFBD JUMPI PUSH1 0x40 MLOAD PUSH3 0x461BCD PUSH1 0xE5 SHL DUP2 MSTORE PUSH1 0x4 ADD PUSH2 0x427 SWAP1 PUSH2 0x1E4B JUMP JUMPDEST PUSH1 0x0 JUMPDEST DUP2 MLOAD DUP2 LT ISZERO PUSH2 0x460 JUMPI PUSH2 0xFE5 DUP3 DUP3 DUP2 MLOAD DUP2 LT PUSH2 0xFD8 JUMPI INVALID JUMPDEST PUSH1 0x20 MUL PUSH1 0x20 ADD ADD MLOAD PUSH2 0x15F3 JUMP JUMPDEST PUSH1 0x1 ADD PUSH2 0xFC0 JUMP JUMPDEST PUSH1 0x0 PUSH1 0x7 PUSH1 0x0 DUP4 PUSH1 0x2 DUP2 GT ISZERO PUSH2 0xFFF JUMPI INVALID JUMPDEST PUSH1 0x2 DUP2 GT ISZERO PUSH2 0x100A JUMPI INVALID JUMPDEST DUP2 MSTORE PUSH1 0x20 ADD SWAP1 DUP2 MSTORE PUSH1 0x20 ADD PUSH1 0x0 KECCAK256 PUSH1 0x5 ADD SLOAD SWAP1 POP SWAP2 SWAP1 POP JUMP JUMPDEST CALLER PUSH1 0x0 DUP2 DUP2 MSTORE PUSH1 0x1 PUSH1 0x20 DUP2 SWAP1 MSTORE PUSH1 0x40 SWAP1 SWAP2 KECCAK256 SLOAD PUSH1 0xFF AND ISZERO ISZERO EQ PUSH2 0x1058 JUMPI PUSH1 0x40 MLOAD PUSH3 0x461BCD PUSH1 0xE5 SHL DUP2 MSTORE PUSH1 0x4 ADD PUSH2 0x427 SWAP1 PUSH2 0x1F14 JUMP JUMPDEST PUSH1 0x4 SLOAD PUSH1 0xFF AND ISZERO ISZERO PUSH1 0x1 EQ PUSH2 0x107F JUMPI PUSH1 0x40 MLOAD PUSH3 0x461BCD PUSH1 0xE5 SHL DUP2 MSTORE PUSH1 0x4 ADD PUSH2 0x427 SWAP1 PUSH2 0x1DB7 JUMP JUMPDEST PUSH1 0x0 PUSH2 0x108B CALLER DUP5 PUSH2 0xCDE JUMP JUMPDEST SWAP1 POP PUSH1 0x0 DUP2 GT PUSH2 0x10AD JUMPI PUSH1 0x40 MLOAD PUSH3 0x461BCD PUSH1 0xE5 SHL DUP2 MSTORE PUSH1 0x4 ADD PUSH2 0x427 SWAP1 PUSH2 0x1CEC JUMP JUMPDEST PUSH1 0x0 PUSH2 0x10B9 CALLER DUP6 PUSH2 0x684 JUMP JUMPDEST SWAP1 POP PUSH2 0x10FA DUP3 PUSH1 0x7 PUSH1 0x0 DUP8 PUSH1 0x2 DUP2 GT ISZERO PUSH2 0x10CF JUMPI INVALID JUMPDEST PUSH1 0x2 DUP2 GT ISZERO PUSH2 0x10DA JUMPI INVALID JUMPDEST DUP2 MSTORE PUSH1 0x20 ADD SWAP1 DUP2 MSTORE PUSH1 0x20 ADD PUSH1 0x0 KECCAK256 PUSH1 0x5 ADD SLOAD PUSH2 0x1940 SWAP1 SWAP2 SWAP1 PUSH4 0xFFFFFFFF AND JUMP JUMPDEST PUSH1 0x7 PUSH1 0x0 DUP7 PUSH1 0x2 DUP2 GT ISZERO PUSH2 0x110A JUMPI INVALID JUMPDEST PUSH1 0x2 DUP2 GT ISZERO PUSH2 0x1115 JUMPI INVALID JUMPDEST DUP2 MSTORE PUSH1 0x20 ADD SWAP1 DUP2 MSTORE PUSH1 0x20 ADD PUSH1 0x0 KECCAK256 PUSH1 0x5 ADD DUP2 SWAP1 SSTORE POP PUSH2 0x1169 DUP2 PUSH1 0x7 PUSH1 0x0 DUP8 PUSH1 0x2 DUP2 GT ISZERO PUSH2 0x113E JUMPI INVALID JUMPDEST PUSH1 0x2 DUP2 GT ISZERO PUSH2 0x1149 JUMPI INVALID JUMPDEST DUP2 MSTORE PUSH1 0x20 ADD SWAP1 DUP2 MSTORE PUSH1 0x20 ADD PUSH1 0x0 KECCAK256 PUSH1 0x4 ADD SLOAD PUSH2 0x1940 SWAP1 SWAP2 SWAP1 PUSH4 0xFFFFFFFF AND JUMP JUMPDEST PUSH1 0x7 PUSH1 0x0 DUP7 PUSH1 0x2 DUP2 GT ISZERO PUSH2 0x1179 JUMPI INVALID JUMPDEST PUSH1 0x2 DUP2 GT ISZERO PUSH2 0x1184 JUMPI INVALID JUMPDEST DUP2 MSTORE PUSH1 0x20 ADD SWAP1 DUP2 MSTORE PUSH1 0x20 ADD PUSH1 0x0 KECCAK256 PUSH1 0x4 ADD DUP2 SWAP1 SSTORE POP PUSH1 0x0 JUMPDEST CALLER PUSH1 0x0 SWAP1 DUP2 MSTORE PUSH1 0x8 PUSH1 0x20 MSTORE PUSH1 0x40 SWAP1 KECCAK256 SLOAD DUP2 LT ISZERO PUSH2 0x1245 JUMPI DUP5 PUSH1 0x2 DUP2 GT ISZERO PUSH2 0x11BF JUMPI INVALID JUMPDEST CALLER PUSH1 0x0 SWAP1 DUP2 MSTORE PUSH1 0x8 PUSH1 0x20 MSTORE PUSH1 0x40 SWAP1 KECCAK256 DUP1 SLOAD DUP4 SWAP1 DUP2 LT PUSH2 0x11DA JUMPI INVALID JUMPDEST PUSH1 0x0 SWAP2 DUP3 MSTORE PUSH1 0x20 SWAP1 SWAP2 KECCAK256 PUSH1 0x3 SWAP1 SWAP2 MUL ADD SLOAD PUSH1 0xFF AND PUSH1 0x2 DUP2 GT ISZERO PUSH2 0x11F9 JUMPI INVALID JUMPDEST EQ ISZERO PUSH2 0x123D JUMPI CALLER PUSH1 0x0 SWAP1 DUP2 MSTORE PUSH1 0x8 PUSH1 0x20 MSTORE PUSH1 0x40 SWAP1 KECCAK256 DUP1 SLOAD DUP3 SWAP1 DUP2 LT PUSH2 0x121A JUMPI INVALID JUMPDEST PUSH1 0x0 SWAP2 DUP3 MSTORE PUSH1 0x20 DUP3 KECCAK256 PUSH1 0x3 SWAP1 SWAP2 MUL ADD DUP1 SLOAD PUSH1 0xFF NOT AND DUP2 SSTORE PUSH1 0x1 DUP2 ADD DUP3 SWAP1 SSTORE PUSH1 0x2 ADD SSTORE JUMPDEST PUSH1 0x1 ADD PUSH2 0x119C JUMP JUMPDEST POP PUSH1 0x0 PUSH2 0x1252 DUP4 DUP4 PUSH2 0x1914 JUMP JUMPDEST PUSH1 0x40 MLOAD PUSH32 0xA9059CBB00000000000000000000000000000000000000000000000000000000 DUP2 MSTORE SWAP1 SWAP2 POP PUSH1 0x1 PUSH1 0x1 PUSH1 0xA0 SHL SUB PUSH32 0x0 AND SWAP1 PUSH4 0xA9059CBB SWAP1 PUSH2 0x12BC SWAP1 CALLER SWAP1 DUP6 SWAP1 PUSH1 0x4 ADD PUSH2 0x1B9D JUMP JUMPDEST PUSH1 0x20 PUSH1 0x40 MLOAD DUP1 DUP4 SUB DUP2 PUSH1 0x0 DUP8 DUP1 EXTCODESIZE ISZERO DUP1 ISZERO PUSH2 0x12D6 JUMPI PUSH1 0x0 DUP1 REVERT JUMPDEST POP GAS CALL ISZERO DUP1 ISZERO PUSH2 0x12EA JUMPI RETURNDATASIZE PUSH1 0x0 DUP1 RETURNDATACOPY RETURNDATASIZE PUSH1 0x0 REVERT JUMPDEST POP POP POP POP PUSH1 0x40 MLOAD RETURNDATASIZE PUSH1 0x1F NOT PUSH1 0x1F DUP3 ADD AND DUP3 ADD DUP1 PUSH1 0x40 MSTORE POP DUP2 ADD SWAP1 PUSH2 0x130E SWAP2 SWAP1 PUSH2 0x1ABB JUMP JUMPDEST POP PUSH32 0x90A9098AA5EA5EA1098D8651723E3839693BB21CEAF8C670FDFE58357FFF94B9 DUP6 CALLER DUP6 DUP6 PUSH1 0x7 PUSH1 0x0 DUP12 PUSH1 0x2 DUP2 GT ISZERO PUSH2 0x1344 JUMPI INVALID JUMPDEST PUSH1 0x2 DUP2 GT ISZERO PUSH2 0x134F JUMPI INVALID JUMPDEST DUP2 MSTORE PUSH1 0x20 ADD SWAP1 DUP2 MSTORE PUSH1 0x20 ADD PUSH1 0x0 KECCAK256 PUSH1 0x5 ADD SLOAD PUSH1 0x7 PUSH1 0x0 DUP13 PUSH1 0x2 DUP2 GT ISZERO PUSH2 0x1371 JUMPI INVALID JUMPDEST PUSH1 0x2 DUP2 GT ISZERO PUSH2 0x137C JUMPI INVALID JUMPDEST DUP2 MSTORE PUSH1 0x20 ADD SWAP1 DUP2 MSTORE PUSH1 0x20 ADD PUSH1 0x0 KECCAK256 PUSH1 0x4 ADD SLOAD PUSH1 0x40 MLOAD PUSH2 0x13A0 SWAP7 SWAP6 SWAP5 SWAP4 SWAP3 SWAP2 SWAP1 PUSH2 0x1C22 JUMP JUMPDEST PUSH1 0x40 MLOAD DUP1 SWAP2 SUB SWAP1 LOG1 POP POP POP POP POP JUMP JUMPDEST PUSH2 0x13B7 PUSH2 0x1910 JUMP JUMPDEST PUSH1 0x1 PUSH1 0x1 PUSH1 0xA0 SHL SUB AND PUSH2 0x13C8 PUSH2 0xF6F JUMP JUMPDEST PUSH1 0x1 PUSH1 0x1 PUSH1 0xA0 SHL SUB AND EQ PUSH2 0x13EE JUMPI PUSH1 0x40 MLOAD PUSH3 0x461BCD PUSH1 0xE5 SHL DUP2 MSTORE PUSH1 0x4 ADD PUSH2 0x427 SWAP1 PUSH2 0x1E4B JUMP JUMPDEST PUSH1 0x40 MLOAD PUSH4 0x70A08231 PUSH1 0xE0 SHL DUP2 MSTORE PUSH10 0x500FE0681FB4A19B0000 SWAP1 PUSH1 0x1 PUSH1 0x1 PUSH1 0xA0 SHL SUB PUSH32 0x0 AND SWAP1 PUSH4 0x70A08231 SWAP1 PUSH2 0x1446 SWAP1 ADDRESS SWAP1 PUSH1 0x4 ADD PUSH2 0x1B4B JUMP JUMPDEST PUSH1 0x20 PUSH1 0x40 MLOAD DUP1 DUP4 SUB DUP2 DUP7 DUP1 EXTCODESIZE ISZERO DUP1 ISZERO PUSH2 0x145E JUMPI PUSH1 0x0 DUP1 REVERT JUMPDEST POP GAS STATICCALL ISZERO DUP1 ISZERO PUSH2 0x1472 JUMPI RETURNDATASIZE PUSH1 0x0 DUP1 RETURNDATACOPY RETURNDATASIZE PUSH1 0x0 REVERT JUMPDEST POP POP POP POP PUSH1 0x40 MLOAD RETURNDATASIZE PUSH1 0x1F NOT PUSH1 0x1F DUP3 ADD AND DUP3 ADD DUP1 PUSH1 0x40 MSTORE POP DUP2 ADD SWAP1 PUSH2 0x1496 SWAP2 SWAP1 PUSH2 0x1B0F JUMP JUMPDEST EQ PUSH2 0x14B3 JUMPI PUSH1 0x40 MLOAD PUSH3 0x461BCD PUSH1 0xE5 SHL DUP2 MSTORE PUSH1 0x4 ADD PUSH2 0x427 SWAP1 PUSH2 0x1F71 JUMP JUMPDEST PUSH1 0x4 DUP1 SLOAD PUSH1 0xFF NOT AND PUSH1 0x1 OR SWAP1 SSTORE TIMESTAMP PUSH1 0x5 DUP2 SWAP1 SSTORE PUSH2 0x14D3 SWAP1 PUSH3 0xD2F00 PUSH2 0x1914 JUMP JUMPDEST PUSH1 0x6 SSTORE PUSH1 0x7 PUSH1 0x20 MSTORE PUSH32 0x6D5257204EBE7D88FD91AE87941CB2DD9D8062B64AE5A2BD2D28EC40B9FBF6E2 SLOAD PUSH32 0x6D5257204EBE7D88FD91AE87941CB2DD9D8062B64AE5A2BD2D28EC40B9FBF6E3 SSTORE PUSH32 0xB39221ACE053465EC3453CE2B36430BD138B997ECEA25C1043DA0C366812B82B SLOAD PUSH32 0xB39221ACE053465EC3453CE2B36430BD138B997ECEA25C1043DA0C366812B82C SSTORE PUSH1 0x2 PUSH1 0x0 MSTORE PUSH32 0xB7C774451310D1BE4108BC180D1B52823CB0EE0274A6C0081BCAF94F115FB970 SLOAD PUSH32 0xB7C774451310D1BE4108BC180D1B52823CB0EE0274A6C0081BCAF94F115FB971 SSTORE PUSH1 0x5 SLOAD PUSH1 0x40 MLOAD PUSH32 0x26CFEE5C80E24C0160C7F7AAB61A3ABFCA172E09F4B963AE55218C6C7E2EA61 SWAP2 PUSH2 0x15E9 SWAP2 PUSH10 0x500FE0681FB4A19B0000 SWAP1 PUSH2 0x201F JUMP JUMPDEST PUSH1 0x40 MLOAD DUP1 SWAP2 SUB SWAP1 LOG1 JUMP JUMPDEST PUSH2 0x15FB PUSH2 0x1910 JUMP JUMPDEST PUSH1 0x1 PUSH1 0x1 PUSH1 0xA0 SHL SUB AND PUSH2 0x160C PUSH2 0xF6F JUMP JUMPDEST PUSH1 0x1 PUSH1 0x1 PUSH1 0xA0 SHL SUB AND EQ PUSH2 0x1632 JUMPI PUSH1 0x40 MLOAD PUSH3 0x461BCD PUSH1 0xE5 SHL DUP2 MSTORE PUSH1 0x4 ADD PUSH2 0x427 SWAP1 PUSH2 0x1E4B JUMP JUMPDEST PUSH1 0x1 PUSH1 0x1 PUSH1 0xA0 SHL SUB DUP2 AND PUSH2 0x1658 JUMPI PUSH1 0x40 MLOAD PUSH3 0x461BCD PUSH1 0xE5 SHL DUP2 MSTORE PUSH1 0x4 ADD PUSH2 0x427 SWAP1 PUSH2 0x1FA8 JUMP JUMPDEST PUSH1 0x1 PUSH1 0x1 PUSH1 0xA0 SHL SUB DUP2 AND PUSH1 0x0 DUP2 DUP2 MSTORE PUSH1 0x1 PUSH1 0x20 DUP2 SWAP1 MSTORE PUSH1 0x40 DUP1 DUP4 KECCAK256 DUP1 SLOAD PUSH1 0xFF NOT AND SWAP1 SWAP3 OR SWAP1 SWAP2 SSTORE MLOAD PUSH32 0xA850AE9193F515CBAE8D35E8925BD2BE26627FC91BCE650B8652ED254E9CAB03 SWAP2 SWAP1 LOG2 POP JUMP JUMPDEST PUSH1 0x0 PUSH1 0x7 PUSH1 0x0 DUP4 PUSH1 0x2 DUP2 GT ISZERO PUSH2 0x16B9 JUMPI INVALID JUMPDEST PUSH1 0x2 DUP2 GT ISZERO PUSH2 0x16C4 JUMPI INVALID JUMPDEST DUP2 MSTORE PUSH1 0x20 DUP2 ADD SWAP2 SWAP1 SWAP2 MSTORE PUSH1 0x40 ADD PUSH1 0x0 KECCAK256 PUSH1 0x1 ADD SLOAD PUSH8 0xFFFFFFFFFFFFFFFF AND DUP4 LT PUSH2 0x171C JUMPI PUSH1 0x7 PUSH1 0x0 DUP4 PUSH1 0x2 DUP2 GT ISZERO PUSH2 0x16F8 JUMPI INVALID JUMPDEST PUSH1 0x2 DUP2 GT ISZERO PUSH2 0x1703 JUMPI INVALID JUMPDEST DUP2 MSTORE PUSH1 0x20 ADD SWAP1 DUP2 MSTORE PUSH1 0x20 ADD PUSH1 0x0 KECCAK256 PUSH1 0x0 ADD SLOAD SWAP1 POP PUSH2 0x5CA JUMP JUMPDEST PUSH1 0x7 PUSH1 0x0 DUP4 PUSH1 0x2 DUP2 GT ISZERO PUSH2 0x172C JUMPI INVALID JUMPDEST PUSH1 0x2 DUP2 GT ISZERO PUSH2 0x1737 JUMPI INVALID JUMPDEST DUP2 MSTORE PUSH1 0x20 DUP2 ADD SWAP2 SWAP1 SWAP2 MSTORE PUSH1 0x40 ADD PUSH1 0x0 KECCAK256 PUSH1 0x1 ADD SLOAD PUSH1 0x1 PUSH1 0x80 SHL SWAP1 DIV PUSH8 0xFFFFFFFFFFFFFFFF AND DUP4 LT PUSH2 0xF58 JUMPI PUSH1 0x7 PUSH1 0x0 DUP4 PUSH1 0x2 DUP2 GT ISZERO PUSH2 0x1772 JUMPI INVALID JUMPDEST PUSH1 0x2 DUP2 GT ISZERO PUSH2 0x177D JUMPI INVALID JUMPDEST DUP2 MSTORE PUSH1 0x20 DUP2 ADD SWAP2 SWAP1 SWAP2 MSTORE PUSH1 0x40 ADD PUSH1 0x0 KECCAK256 PUSH1 0x1 ADD SLOAD PUSH9 0x10000000000000000 SWAP1 DIV PUSH8 0xFFFFFFFFFFFFFFFF AND SWAP1 POP PUSH2 0x5CA JUMP JUMPDEST PUSH1 0x0 PUSH1 0x7 PUSH1 0x0 DUP4 PUSH1 0x2 DUP2 GT ISZERO PUSH2 0x17C0 JUMPI INVALID JUMPDEST PUSH1 0x2 DUP2 GT ISZERO PUSH2 0x17CB JUMPI INVALID JUMPDEST DUP2 MSTORE PUSH1 0x20 ADD SWAP1 DUP2 MSTORE PUSH1 0x20 ADD PUSH1 0x0 KECCAK256 PUSH1 0x4 ADD SLOAD SWAP1 POP SWAP2 SWAP1 POP JUMP JUMPDEST PUSH2 0x17EC PUSH2 0x1910 JUMP JUMPDEST PUSH1 0x1 PUSH1 0x1 PUSH1 0xA0 SHL SUB AND PUSH2 0x17FD PUSH2 0xF6F JUMP JUMPDEST PUSH1 0x1 PUSH1 0x1 PUSH1 0xA0 SHL SUB AND EQ PUSH2 0x1823 JUMPI PUSH1 0x40 MLOAD PUSH3 0x461BCD PUSH1 0xE5 SHL DUP2 MSTORE PUSH1 0x4 ADD PUSH2 0x427 SWAP1 PUSH2 0x1E4B JUMP JUMPDEST PUSH1 0x1 PUSH1 0x1 PUSH1 0xA0 SHL SUB DUP2 AND PUSH2 0x1849 JUMPI PUSH1 0x40 MLOAD PUSH3 0x461BCD PUSH1 0xE5 SHL DUP2 MSTORE PUSH1 0x4 ADD PUSH2 0x427 SWAP1 PUSH2 0x1D23 JUMP JUMPDEST PUSH1 0x0 DUP1 SLOAD PUSH1 0x40 MLOAD PUSH1 0x1 PUSH1 0x1 PUSH1 0xA0 SHL SUB DUP1 DUP6 AND SWAP4 SWAP3 AND SWAP2 PUSH32 0x8BE0079C531659141344CD1FD0A4F28419497F9722A3DAAFE3B4186F6B6457E0 SWAP2 LOG3 PUSH1 0x0 DUP1 SLOAD PUSH20 0xFFFFFFFFFFFFFFFFFFFFFFFFFFFFFFFFFFFFFFFF NOT AND PUSH1 0x1 PUSH1 0x1 PUSH1 0xA0 SHL SUB SWAP3 SWAP1 SWAP3 AND SWAP2 SWAP1 SWAP2 OR SWAP1 SSTORE JUMP JUMPDEST PUSH1 0x7 PUSH1 0x20 MSTORE PUSH1 0x0 SWAP1 DUP2 MSTORE PUSH1 0x40 SWAP1 KECCAK256 DUP1 SLOAD PUSH1 0x1 DUP3 ADD SLOAD PUSH1 0x2 DUP4 ADD SLOAD PUSH1 0x3 DUP5 ADD SLOAD PUSH1 0x4 DUP6 ADD SLOAD PUSH1 0x5 DUP7 ADD SLOAD PUSH1 0x6 SWAP1 SWAP7 ADD SLOAD SWAP5 SWAP6 PUSH8 0xFFFFFFFFFFFFFFFF DUP1 DUP7 AND SWAP7 PUSH9 0x10000000000000000 DUP8 DIV DUP3 AND SWAP7 PUSH1 0x1 PUSH1 0x80 SHL SWAP1 DIV SWAP1 SWAP2 AND SWAP5 SWAP4 SWAP3 SWAP2 SWAP1 DUP10 JUMP JUMPDEST CALLER SWAP1 JUMP JUMPDEST PUSH1 0x0 DUP3 DUP3 ADD DUP4 DUP2 LT ISZERO PUSH2 0x1939 JUMPI PUSH1 0x40 MLOAD PUSH3 0x461BCD PUSH1 0xE5 SHL DUP2 MSTORE PUSH1 0x4 ADD PUSH2 0x427 SWAP1 PUSH2 0x1D80 JUMP JUMPDEST SWAP4 SWAP3 POP POP POP JUMP JUMPDEST PUSH1 0x0 PUSH2 0x1939 DUP4 DUP4 PUSH1 0x40 MLOAD DUP1 PUSH1 0x40 ADD PUSH1 0x40 MSTORE DUP1 PUSH1 0x1E DUP2 MSTORE PUSH1 0x20 ADD PUSH32 0x536166654D6174683A207375627472616374696F6E206F766572666C6F770000 DUP2 MSTORE POP PUSH1 0x0 DUP2 DUP5 DUP5 GT ISZERO PUSH2 0x19A1 JUMPI PUSH1 0x40 MLOAD PUSH3 0x461BCD PUSH1 0xE5 SHL DUP2 MSTORE PUSH1 0x4 ADD PUSH2 0x427 SWAP2 SWAP1 PUSH2 0x1C62 JUMP JUMPDEST POP POP POP SWAP1 SUB SWAP1 JUMP JUMPDEST DUP1 CALLDATALOAD PUSH1 0x1 PUSH1 0x1 PUSH1 0xA0 SHL SUB DUP2 AND DUP2 EQ PUSH2 0x5CA JUMPI PUSH1 0x0 DUP1 REVERT JUMPDEST PUSH1 0x0 PUSH1 0x20 DUP3 DUP5 SUB SLT ISZERO PUSH2 0x19D1 JUMPI DUP1 DUP2 REVERT JUMPDEST PUSH2 0x1939 DUP4 DUP4 PUSH2 0x19A9 JUMP JUMPDEST PUSH1 0x0 DUP1 PUSH1 0x40 DUP4 DUP6 SUB SLT ISZERO PUSH2 0x19ED JUMPI DUP1 DUP2 REVERT JUMPDEST DUP3 CALLDATALOAD PUSH1 0x1 PUSH1 0x1 PUSH1 0xA0 SHL SUB DUP2 AND DUP2 EQ PUSH2 0x1A03 JUMPI DUP2 DUP3 REVERT JUMPDEST SWAP2 POP PUSH1 0x20 DUP4 ADD CALLDATALOAD PUSH2 0x1A13 DUP2 PUSH2 0x20E3 JUMP JUMPDEST DUP1 SWAP2 POP POP SWAP3 POP SWAP3 SWAP1 POP JUMP JUMPDEST PUSH1 0x0 PUSH1 0x20 DUP1 DUP4 DUP6 SUB SLT ISZERO PUSH2 0x1A30 JUMPI DUP2 DUP3 REVERT JUMPDEST DUP3 CALLDATALOAD PUSH8 0xFFFFFFFFFFFFFFFF DUP2 GT ISZERO PUSH2 0x1A46 JUMPI DUP3 DUP4 REVERT JUMPDEST DUP4 ADD PUSH1 0x1F DUP2 ADD DUP6 SGT PUSH2 0x1A56 JUMPI DUP3 DUP4 REVERT JUMPDEST DUP1 CALLDATALOAD PUSH2 0x1A69 PUSH2 0x1A64 DUP3 PUSH2 0x20B8 JUMP JUMPDEST PUSH2 0x2091 JUMP JUMPDEST DUP2 DUP2 MSTORE DUP4 DUP2 ADD SWAP1 DUP4 DUP6 ADD DUP6 DUP5 MUL DUP6 ADD DUP7 ADD DUP10 LT ISZERO PUSH2 0x1A85 JUMPI DUP7 DUP8 REVERT JUMPDEST DUP7 SWAP5 POP JUMPDEST DUP4 DUP6 LT ISZERO PUSH2 0x1AAF JUMPI PUSH2 0x1A9B DUP10 DUP3 PUSH2 0x19A9 JUMP JUMPDEST DUP4 MSTORE PUSH1 0x1 SWAP5 SWAP1 SWAP5 ADD SWAP4 SWAP2 DUP6 ADD SWAP2 DUP6 ADD PUSH2 0x1A89 JUMP JUMPDEST POP SWAP8 SWAP7 POP POP POP POP POP POP POP JUMP JUMPDEST PUSH1 0x0 PUSH1 0x20 DUP3 DUP5 SUB SLT ISZERO PUSH2 0x1ACC JUMPI DUP1 DUP2 REVERT JUMPDEST DUP2 MLOAD DUP1 ISZERO ISZERO DUP2 EQ PUSH2 0x1939 JUMPI DUP2 DUP3 REVERT JUMPDEST PUSH1 0x0 PUSH1 0x20 DUP3 DUP5 SUB SLT ISZERO PUSH2 0x1AEC JUMPI DUP1 DUP2 REVERT JUMPDEST DUP2 CALLDATALOAD PUSH2 0x1939 DUP2 PUSH2 0x20E3 JUMP JUMPDEST PUSH1 0x0 PUSH1 0x20 DUP3 DUP5 SUB SLT ISZERO PUSH2 0x1B08 JUMPI DUP1 DUP2 REVERT JUMPDEST POP CALLDATALOAD SWAP2 SWAP1 POP JUMP JUMPDEST PUSH1 0x0 PUSH1 0x20 DUP3 DUP5 SUB SLT ISZERO PUSH2 0x1B20 JUMPI DUP1 DUP2 REVERT JUMPDEST POP MLOAD SWAP2 SWAP1 POP JUMP JUMPDEST PUSH1 0x0 DUP1 PUSH1 0x40 DUP4 DUP6 SUB SLT ISZERO PUSH2 0x1B39 JUMPI DUP2 DUP3 REVERT JUMPDEST DUP3 CALLDATALOAD SWAP2 POP PUSH1 0x20 DUP4 ADD CALLDATALOAD PUSH2 0x1A13 DUP2 PUSH2 0x20E3 JUMP JUMPDEST PUSH1 0x1 PUSH1 0x1 PUSH1 0xA0 SHL SUB SWAP2 SWAP1 SWAP2 AND DUP2 MSTORE PUSH1 0x20 ADD SWAP1 JUMP JUMPDEST PUSH1 0x1 PUSH1 0x1 PUSH1 0xA0 SHL SUB SWAP3 DUP4 AND DUP2 MSTORE SWAP2 AND PUSH1 0x20 DUP3 ADD MSTORE PUSH1 0x40 ADD SWAP1 JUMP JUMPDEST PUSH1 0x1 PUSH1 0x1 PUSH1 0xA0 SHL SUB SWAP4 DUP5 AND DUP2 MSTORE SWAP2 SWAP1 SWAP3 AND PUSH1 0x20 DUP3 ADD MSTORE PUSH1 0x40 DUP2 ADD SWAP2 SWAP1 SWAP2 MSTORE PUSH1 0x60 ADD SWAP1 JUMP JUMPDEST PUSH1 0x1 PUSH1 0x1 PUSH1 0xA0 SHL SUB SWAP3 SWAP1 SWAP3 AND DUP3 MSTORE PUSH1 0x20 DUP3 ADD MSTORE PUSH1 0x40 ADD SWAP1 JUMP JUMPDEST PUSH1 0x20 DUP1 DUP3 MSTORE DUP3 MLOAD DUP3 DUP3 ADD DUP2 SWAP1 MSTORE PUSH1 0x0 SWAP2 SWAP1 PUSH1 0x40 SWAP1 DUP2 DUP6 ADD SWAP1 DUP7 DUP5 ADD DUP6 JUMPDEST DUP3 DUP2 LT ISZERO PUSH2 0x1C0A JUMPI DUP2 MLOAD PUSH2 0x1BE7 DUP2 MLOAD PUSH2 0x20D8 JUMP JUMPDEST DUP6 MSTORE DUP1 DUP8 ADD MLOAD DUP8 DUP7 ADD MSTORE DUP6 ADD MLOAD DUP6 DUP6 ADD MSTORE PUSH1 0x60 SWAP1 SWAP4 ADD SWAP3 SWAP1 DUP6 ADD SWAP1 PUSH1 0x1 ADD PUSH2 0x1BD3 JUMP JUMPDEST POP SWAP2 SWAP8 SWAP7 POP POP POP POP POP POP POP JUMP JUMPDEST SWAP1 ISZERO ISZERO DUP2 MSTORE PUSH1 0x20 ADD SWAP1 JUMP JUMPDEST PUSH1 0xC0 DUP2 ADD PUSH2 0x1C2F DUP9 PUSH2 0x20D8 JUMP JUMPDEST DUP3 MSTORE PUSH1 0x1 PUSH1 0x1 PUSH1 0xA0 SHL SUB SWAP7 SWAP1 SWAP7 AND PUSH1 0x20 DUP3 ADD MSTORE PUSH1 0x40 DUP2 ADD SWAP5 SWAP1 SWAP5 MSTORE PUSH1 0x60 DUP5 ADD SWAP3 SWAP1 SWAP3 MSTORE PUSH1 0x80 DUP4 ADD MSTORE PUSH1 0xA0 SWAP1 SWAP2 ADD MSTORE SWAP2 SWAP1 POP JUMP JUMPDEST PUSH1 0x0 PUSH1 0x20 DUP1 DUP4 MSTORE DUP4 MLOAD DUP1 DUP3 DUP6 ADD MSTORE DUP3 JUMPDEST DUP2 DUP2 LT ISZERO PUSH2 0x1C8E JUMPI DUP6 DUP2 ADD DUP4 ADD MLOAD DUP6 DUP3 ADD PUSH1 0x40 ADD MSTORE DUP3 ADD PUSH2 0x1C72 JUMP JUMPDEST DUP2 DUP2 GT ISZERO PUSH2 0x1C9F JUMPI DUP4 PUSH1 0x40 DUP4 DUP8 ADD ADD MSTORE JUMPDEST POP PUSH1 0x1F ADD PUSH1 0x1F NOT AND SWAP3 SWAP1 SWAP3 ADD PUSH1 0x40 ADD SWAP4 SWAP3 POP POP POP JUMP JUMPDEST PUSH1 0x20 DUP1 DUP3 MSTORE PUSH1 0x16 SWAP1 DUP3 ADD MSTORE PUSH32 0x4E6F7420656E6F756768205354414B20746F6B656E7300000000000000000000 PUSH1 0x40 DUP3 ADD MSTORE PUSH1 0x60 ADD SWAP1 JUMP JUMPDEST PUSH1 0x20 DUP1 DUP3 MSTORE PUSH1 0x13 SWAP1 DUP3 ADD MSTORE PUSH32 0x4E6F7468696E6720746F20776974686472617700000000000000000000000000 PUSH1 0x40 DUP3 ADD MSTORE PUSH1 0x60 ADD SWAP1 JUMP JUMPDEST PUSH1 0x20 DUP1 DUP3 MSTORE PUSH1 0x26 SWAP1 DUP3 ADD MSTORE PUSH32 0x4F776E61626C653A206E6577206F776E657220697320746865207A65726F2061 PUSH1 0x40 DUP3 ADD MSTORE PUSH32 0x6464726573730000000000000000000000000000000000000000000000000000 PUSH1 0x60 DUP3 ADD MSTORE PUSH1 0x80 ADD SWAP1 JUMP JUMPDEST PUSH1 0x20 DUP1 DUP3 MSTORE PUSH1 0x1B SWAP1 DUP3 ADD MSTORE PUSH32 0x536166654D6174683A206164646974696F6E206F766572666C6F770000000000 PUSH1 0x40 DUP3 ADD MSTORE PUSH1 0x60 ADD SWAP1 JUMP JUMPDEST PUSH1 0x20 DUP1 DUP3 MSTORE PUSH1 0x19 SWAP1 DUP3 ADD MSTORE PUSH32 0x5374616B696E6720686173206E6F7420626567756E2079657400000000000000 PUSH1 0x40 DUP3 ADD MSTORE PUSH1 0x60 ADD SWAP1 JUMP JUMPDEST PUSH1 0x20 DUP1 DUP3 MSTORE PUSH1 0x22 SWAP1 DUP3 ADD MSTORE PUSH32 0x436F6E7472616374207374616B696E6720636170616369747920657863656564 PUSH1 0x40 DUP3 ADD MSTORE PUSH32 0x6564000000000000000000000000000000000000000000000000000000000000 PUSH1 0x60 DUP3 ADD MSTORE PUSH1 0x80 ADD SWAP1 JUMP JUMPDEST PUSH1 0x20 DUP1 DUP3 MSTORE DUP2 DUP2 ADD MSTORE PUSH32 0x4F776E61626C653A2063616C6C6572206973206E6F7420746865206F776E6572 PUSH1 0x40 DUP3 ADD MSTORE PUSH1 0x60 ADD SWAP1 JUMP JUMPDEST PUSH1 0x20 DUP1 DUP3 MSTORE PUSH1 0x15 SWAP1 DUP3 ADD MSTORE PUSH32 0x6465706F736974416D6F756E7420746F6F206C6F770000000000000000000000 PUSH1 0x40 DUP3 ADD MSTORE PUSH1 0x60 ADD SWAP1 JUMP JUMPDEST PUSH1 0x20 DUP1 DUP3 MSTORE PUSH1 0x29 SWAP1 DUP3 ADD MSTORE PUSH32 0x436F6E7472616374207374616B696E67206465706F7369742074696D65207065 PUSH1 0x40 DUP3 ADD MSTORE PUSH32 0x72696F64206F7665720000000000000000000000000000000000000000000000 PUSH1 0x60 DUP3 ADD MSTORE PUSH1 0x80 ADD SWAP1 JUMP JUMPDEST PUSH1 0x20 DUP1 DUP3 MSTORE PUSH1 0x30 SWAP1 DUP3 ADD MSTORE PUSH32 0x557365722069736E277420617574686F72697A656420746F20706572666F726D PUSH1 0x40 DUP3 ADD MSTORE PUSH32 0x2074686973206F7065726174696F6E2E00000000000000000000000000000000 PUSH1 0x60 DUP3 ADD MSTORE PUSH1 0x80 ADD SWAP1 JUMP JUMPDEST PUSH1 0x20 DUP1 DUP3 MSTORE PUSH1 0x1A SWAP1 DUP3 ADD MSTORE PUSH32 0x4E6F7420656E6F756768207374616B696E672072657761726473000000000000 PUSH1 0x40 DUP3 ADD MSTORE PUSH1 0x60 ADD SWAP1 JUMP JUMPDEST PUSH1 0x20 DUP1 DUP3 MSTORE PUSH1 0x1C SWAP1 DUP3 ADD MSTORE PUSH32 0x49434F5F43414D504149474E3A3A494E56414C49445F57414C4C455400000000 PUSH1 0x40 DUP3 ADD MSTORE PUSH1 0x60 ADD SWAP1 JUMP JUMPDEST PUSH1 0x20 DUP1 DUP3 MSTORE PUSH1 0x18 SWAP1 DUP3 ADD MSTORE PUSH32 0x436865636B20746865205354414B20616C6C6F77616E63650000000000000000 PUSH1 0x40 DUP3 ADD MSTORE PUSH1 0x60 ADD SWAP1 JUMP JUMPDEST SWAP1 DUP2 MSTORE PUSH1 0x20 ADD SWAP1 JUMP JUMPDEST SWAP2 DUP3 MSTORE PUSH1 0x20 DUP3 ADD MSTORE PUSH1 0x40 ADD SWAP1 JUMP JUMPDEST SWAP9 DUP10 MSTORE PUSH8 0xFFFFFFFFFFFFFFFF SWAP8 DUP9 AND PUSH1 0x20 DUP11 ADD MSTORE SWAP6 DUP8 AND PUSH1 0x40 DUP10 ADD MSTORE SWAP4 SWAP1 SWAP6 AND PUSH1 0x60 DUP8 ADD MSTORE PUSH1 0x80 DUP7 ADD SWAP2 SWAP1 SWAP2 MSTORE PUSH1 0xA0 DUP6 ADD MSTORE PUSH1 0xC0 DUP5 ADD SWAP3 SWAP1 SWAP3 MSTORE PUSH1 0xE0 DUP4 ADD SWAP2 SWAP1 SWAP2 MSTORE PUSH2 0x100 DUP3 ADD MSTORE PUSH2 0x120 ADD SWAP1 JUMP JUMPDEST PUSH8 0xFFFFFFFFFFFFFFFF SWAP2 SWAP1 SWAP2 AND DUP2 MSTORE PUSH1 0x20 ADD SWAP1 JUMP JUMPDEST PUSH1 0x40 MLOAD DUP2 DUP2 ADD PUSH8 0xFFFFFFFFFFFFFFFF DUP2 GT DUP3 DUP3 LT OR ISZERO PUSH2 0x20B0 JUMPI PUSH1 0x0 DUP1 REVERT JUMPDEST PUSH1 0x40 MSTORE SWAP2 SWAP1 POP JUMP JUMPDEST PUSH1 0x0 PUSH8 0xFFFFFFFFFFFFFFFF DUP3 GT ISZERO PUSH2 0x20CE JUMPI DUP1 DUP2 REVERT JUMPDEST POP PUSH1 0x20 SWAP1 DUP2 MUL ADD SWAP1 JUMP JUMPDEST DUP1 PUSH1 0x3 DUP2 LT PUSH2 0x517 JUMPI INVALID JUMPDEST PUSH1 0x3 DUP2 LT PUSH2 0x20F0 JUMPI PUSH1 0x0 DUP1 REVERT JUMPDEST POP JUMP INVALID LOG2 PUSH5 0x6970667358 0x22 SLT KECCAK256 SELFDESTRUCT 0xD5 0xD9 MULMOD DIV MLOAD SWAP4 0xC9 SWAP11 0xF6 0xAB LOG0 DUP2 EXP 0x27 0xED LOG3 PUSH23 0x69B092202CD48F2E5EC63A4E874364736F6C634300060C STOP CALLER "
        },
        "methodIdentifiers": {
          "active()": "02fb0c5e",
          "addToWhitelist(address)": "e43252d7",
          "addToWhitelistBatch(address[])": "a6177139",
          "beginStaking()": "dfef5717",
          "cutoffTime()": "62107e8d",
          "deposit(uint256,uint8)": "654cfdff",
          "getNDays(uint256,uint8)": "7bfa7f5f",
          "getStakingFunds(uint8)": "f291757f",
          "getUserDepositTotal(address,uint8)": "6c281c05",
          "getUserDeposits(address)": "2a5bf6d2",
          "getUserFunds(uint8)": "bd18e0fd",
          "getUserYield(address,uint8)": "63119960",
          "getYieldMultiplier(uint256,uint8)": "ec94e0a3",
          "isWhitelisted(address)": "3af32abf",
          "minHeldTokens()": "2f0c1ed5",
          "minStakingAmount()": "25c065b1",
          "owner()": "8da5cb5b",
          "pools(uint8)": "fb87a635",
          "removFromWhitelist(address)": "6269afab",
          "removFromWhitelistBatch(address[])": "0c6f444b",
          "renounceOwnership()": "715018a6",
          "setHeldTokens(uint256)": "0a3453d7",
          "startTime()": "78e97925",
          "totalRewardSupply()": "8a8a759e",
          "transferOwnership(address)": "f2fde38b",
          "withdraw(uint8)": "c6ab5d90"
        }
      }
    }
  }
}