{
  "_format": "hh-sol-artifact-1",
  "contractName": "StakBank",
  "sourceName": "contracts/StakBank.sol",
  "abi": [
    {
      "inputs": [
        {
          "internalType": "contract IERC20",
          "name": "StakContract",
          "type": "address"
        }
      ],
      "stateMutability": "nonpayable",
      "type": "constructor"
    },
    {
      "anonymous": false,
      "inputs": [
        {
          "indexed": true,
          "internalType": "address",
          "name": "account",
          "type": "address"
        }
      ],
      "name": "AddedToWhitelist",
      "type": "event"
    },
    {
      "anonymous": false,
      "inputs": [
        {
          "indexed": false,
          "internalType": "uint256",
          "name": "amount",
          "type": "uint256"
        }
      ],
      "name": "MinHeldTokensChanged",
      "type": "event"
    },
    {
      "anonymous": false,
      "inputs": [
        {
          "indexed": true,
          "internalType": "address",
          "name": "previousOwner",
          "type": "address"
        },
        {
          "indexed": true,
          "internalType": "address",
          "name": "newOwner",
          "type": "address"
        }
      ],
      "name": "OwnershipTransferred",
      "type": "event"
    },
    {
      "anonymous": false,
      "inputs": [
        {
          "indexed": true,
          "internalType": "address",
          "name": "account",
          "type": "address"
        }
      ],
      "name": "RemovedFromWhitelist",
      "type": "event"
    },
    {
      "anonymous": false,
      "inputs": [
        {
          "indexed": false,
          "internalType": "uint256",
          "name": "timestamp",
          "type": "uint256"
        },
        {
          "indexed": false,
          "internalType": "uint256",
          "name": "stakingFunds",
          "type": "uint256"
        }
      ],
      "name": "StakingBegins",
      "type": "event"
    },
    {
      "anonymous": false,
      "inputs": [
        {
          "indexed": false,
          "internalType": "enum StakBank.poolNames",
          "name": "pool",
          "type": "uint8"
        },
        {
          "indexed": false,
          "internalType": "address",
          "name": "userAddress",
          "type": "address"
        },
        {
          "indexed": false,
          "internalType": "uint256",
          "name": "principal",
          "type": "uint256"
        },
        {
          "indexed": false,
          "internalType": "uint256",
          "name": "yield",
          "type": "uint256"
        },
        {
          "indexed": false,
          "internalType": "uint256",
          "name": "userFundsRemaining",
          "type": "uint256"
        },
        {
          "indexed": false,
          "internalType": "uint256",
          "name": "stakingFundsRemaining",
          "type": "uint256"
        }
      ],
      "name": "Withdraw",
      "type": "event"
    },
    {
      "inputs": [],
      "name": "active",
      "outputs": [
        {
          "internalType": "bool",
          "name": "",
          "type": "bool"
        }
      ],
      "stateMutability": "view",
      "type": "function"
    },
    {
      "inputs": [
        {
          "internalType": "address",
          "name": "_address",
          "type": "address"
        }
      ],
      "name": "addToWhitelist",
      "outputs": [],
      "stateMutability": "nonpayable",
      "type": "function"
    },
    {
      "inputs": [
        {
          "internalType": "address[]",
          "name": "_address",
          "type": "address[]"
        }
      ],
      "name": "addToWhitelistBatch",
      "outputs": [],
      "stateMutability": "nonpayable",
      "type": "function"
    },
    {
      "inputs": [],
      "name": "beginStaking",
      "outputs": [],
      "stateMutability": "nonpayable",
      "type": "function"
    },
    {
      "inputs": [],
      "name": "cutoffTime",
      "outputs": [
        {
          "internalType": "uint256",
          "name": "",
          "type": "uint256"
        }
      ],
      "stateMutability": "view",
      "type": "function"
    },
    {
      "inputs": [
        {
          "internalType": "uint256",
          "name": "depositAmount",
          "type": "uint256"
        },
        {
          "internalType": "enum StakBank.poolNames",
          "name": "_pool",
          "type": "uint8"
        }
      ],
      "name": "deposit",
      "outputs": [],
      "stateMutability": "nonpayable",
      "type": "function"
    },
    {
      "inputs": [
        {
          "internalType": "uint256",
          "name": "daysStaked",
          "type": "uint256"
        },
        {
          "internalType": "enum StakBank.poolNames",
          "name": "_pool",
          "type": "uint8"
        }
      ],
      "name": "getNDays",
      "outputs": [
        {
          "internalType": "uint64",
          "name": "",
          "type": "uint64"
        }
      ],
      "stateMutability": "view",
      "type": "function"
    },
    {
      "inputs": [
        {
          "internalType": "enum StakBank.poolNames",
          "name": "_pool",
          "type": "uint8"
        }
      ],
      "name": "getStakingFunds",
      "outputs": [
        {
          "internalType": "uint256",
          "name": "",
          "type": "uint256"
        }
      ],
      "stateMutability": "view",
      "type": "function"
    },
    {
      "inputs": [
        {
          "internalType": "address",
          "name": "userAddress",
          "type": "address"
        },
        {
          "internalType": "enum StakBank.poolNames",
          "name": "_pool",
          "type": "uint8"
        }
      ],
      "name": "getUserDepositTotal",
      "outputs": [
        {
          "internalType": "uint256",
          "name": "",
          "type": "uint256"
        }
      ],
      "stateMutability": "view",
      "type": "function"
    },
    {
      "inputs": [
        {
          "internalType": "address",
          "name": "userAddress",
          "type": "address"
        }
      ],
      "name": "getUserDeposits",
      "outputs": [
        {
          "components": [
            {
              "internalType": "enum StakBank.poolNames",
              "name": "pool",
              "type": "uint8"
            },
            {
              "internalType": "uint256",
              "name": "amount",
              "type": "uint256"
            },
            {
              "internalType": "uint256",
              "name": "depositTime",
              "type": "uint256"
            }
          ],
          "internalType": "struct StakBank.userDeposit[]",
          "name": "",
          "type": "tuple[]"
        }
      ],
      "stateMutability": "view",
      "type": "function"
    },
    {
      "inputs": [
        {
          "internalType": "enum StakBank.poolNames",
          "name": "_pool",
          "type": "uint8"
        }
      ],
      "name": "getUserFunds",
      "outputs": [
        {
          "internalType": "uint256",
          "name": "",
          "type": "uint256"
        }
      ],
      "stateMutability": "view",
      "type": "function"
    },
    {
      "inputs": [
        {
          "internalType": "address",
          "name": "userAddress",
          "type": "address"
        },
        {
          "internalType": "enum StakBank.poolNames",
          "name": "_pool",
          "type": "uint8"
        }
      ],
      "name": "getUserYield",
      "outputs": [
        {
          "internalType": "uint256",
          "name": "",
          "type": "uint256"
        }
      ],
      "stateMutability": "view",
      "type": "function"
    },
    {
      "inputs": [
        {
          "internalType": "uint256",
          "name": "daysStaked",
          "type": "uint256"
        },
        {
          "internalType": "enum StakBank.poolNames",
          "name": "_pool",
          "type": "uint8"
        }
      ],
      "name": "getYieldMultiplier",
      "outputs": [
        {
          "internalType": "uint256",
          "name": "",
          "type": "uint256"
        }
      ],
      "stateMutability": "view",
      "type": "function"
    },
    {
      "inputs": [
        {
          "internalType": "address",
          "name": "_address",
          "type": "address"
        }
      ],
      "name": "isWhitelisted",
      "outputs": [
        {
          "internalType": "bool",
          "name": "",
          "type": "bool"
        }
      ],
      "stateMutability": "view",
      "type": "function"
    },
    {
      "inputs": [],
      "name": "minHeldTokens",
      "outputs": [
        {
          "internalType": "uint256",
          "name": "",
          "type": "uint256"
        }
      ],
      "stateMutability": "view",
      "type": "function"
    },
    {
      "inputs": [],
      "name": "minStakingAmount",
      "outputs": [
        {
          "internalType": "uint256",
          "name": "",
          "type": "uint256"
        }
      ],
      "stateMutability": "view",
      "type": "function"
    },
    {
      "inputs": [],
      "name": "owner",
      "outputs": [
        {
          "internalType": "address",
          "name": "",
          "type": "address"
        }
      ],
      "stateMutability": "view",
      "type": "function"
    },
    {
      "inputs": [
        {
          "internalType": "enum StakBank.poolNames",
          "name": "",
          "type": "uint8"
        }
      ],
      "name": "pools",
      "outputs": [
        {
          "internalType": "uint256",
          "name": "maturityAPY",
          "type": "uint256"
        },
        {
          "internalType": "uint64",
          "name": "daysToMaturity",
          "type": "uint64"
        },
        {
          "internalType": "uint64",
          "name": "earlyWithdrawalAPY",
          "type": "uint64"
        },
        {
          "internalType": "uint64",
          "name": "daysToEarlyWithdrawal",
          "type": "uint64"
        },
        {
          "internalType": "uint256",
          "name": "maxPoolCapacity",
          "type": "uint256"
        },
        {
          "internalType": "uint256",
          "name": "rewardSupply",
          "type": "uint256"
        },
        {
          "internalType": "uint256",
          "name": "stakingFunds",
          "type": "uint256"
        },
        {
          "internalType": "uint256",
          "name": "userFunds",
          "type": "uint256"
        },
        {
          "internalType": "uint256",
          "name": "totalDeposited",
          "type": "uint256"
        }
      ],
      "stateMutability": "view",
      "type": "function"
    },
    {
      "inputs": [
        {
          "internalType": "address",
          "name": "_address",
          "type": "address"
        }
      ],
      "name": "removFromWhitelist",
      "outputs": [],
      "stateMutability": "nonpayable",
      "type": "function"
    },
    {
      "inputs": [
        {
          "internalType": "address[]",
          "name": "_address",
          "type": "address[]"
        }
      ],
      "name": "removFromWhitelistBatch",
      "outputs": [],
      "stateMutability": "nonpayable",
      "type": "function"
    },
    {
      "inputs": [],
      "name": "renounceOwnership",
      "outputs": [],
      "stateMutability": "nonpayable",
      "type": "function"
    },
    {
      "inputs": [
        {
          "internalType": "uint256",
          "name": "_amount",
          "type": "uint256"
        }
      ],
      "name": "setHeldTokens",
      "outputs": [],
      "stateMutability": "nonpayable",
      "type": "function"
    },
    {
      "inputs": [],
      "name": "startTime",
      "outputs": [
        {
          "internalType": "uint256",
          "name": "",
          "type": "uint256"
        }
      ],
      "stateMutability": "view",
      "type": "function"
    },
    {
      "inputs": [],
      "name": "totalRewardSupply",
      "outputs": [
        {
          "internalType": "uint256",
          "name": "",
          "type": "uint256"
        }
      ],
      "stateMutability": "view",
      "type": "function"
    },
    {
      "inputs": [
        {
          "internalType": "address",
          "name": "newOwner",
          "type": "address"
        }
      ],
      "name": "transferOwnership",
      "outputs": [],
      "stateMutability": "nonpayable",
      "type": "function"
    },
    {
      "inputs": [
        {
          "internalType": "enum StakBank.poolNames",
          "name": "_pool",
          "type": "uint8"
        }
      ],
      "name": "withdraw",
      "outputs": [],
      "stateMutability": "nonpayable",
      "type": "function"
    }
  ],
  "bytecode": "0x60a0604052600280546001600160a01b031916731f8a626883d7724dbd59ef51cbd4bf1cf2016d1317905568056bc75e2d631000006003553480156200004457600080fd5b50604051620025c0380380620025c0833981016040819052620000679162000435565b60006200007362000431565b600080546001600160a01b0319166001600160a01b0383169081178255604051929350917f8be0079c531659141344cd1fd0a4f28419497f9722a3daafe3b4186f6b6457e0908290a350606081811b6001600160601b0319166080908152604080516101208101825260148152603c6020820152600891810191909152601e928101929092526969e10de76676d08000009082015269037b20126dd6063c000060a0820152600060c0820181905260e08201819052610100820181905260079080815260208082019290925260409081016000908120845181558484015160018083018054888701516060808b01516001600160401b03908116600160801b02600160801b600160c01b03199382166801000000000000000002600160401b600160801b0319929098166001600160401b031990951694909417169590951716179055608080880151600285015560a080890151600386015560c0808a0151600487015560e0808b015160058801556101009a8b015160069097019690965587516101208101895260238152607899810199909952600e97890197909752603c9388019390935269d3c21bcecceda10000009087015269185de0166c02dc61000091860191909152928401829052830181905292820183905290916007918152602080820192909252604090810160009081208451815584840151600182018054878601516060808a01516001600160401b03908116600160801b02600160801b600160c01b03199382166801000000000000000002600160401b600160801b0319929097166001600160401b03199095169490941716949094171617905560808087015160028085019190915560a080890151600386015560c0808a0151600487015560e0808b015160058801556101009a8b01516006909701969096558751610120810189526032815260b49981019990995260149789019790975260649388019390935269d3c21bcecceda100000091870191909152693436e03f45dbbefe000091860191909152928401829052830181905292820183905290916007918152602080820192909252604090810160002083518155918301516001830180549285015160608601516001600160401b03199094166001600160401b0393841617600160401b600160801b031916680100000000000000009184169190910217600160801b600160c01b031916600160801b92909316919091029190911790556080820151600282015560a0820151600382015560c0820151600482015560e08201516005820155610100909101516006909101555062000465565b3390565b60006020828403121562000447578081fd5b81516001600160a01b03811681146200045e578182fd5b9392505050565b60805160601c6121296200049760003980610866528061093b5280610c4d5280611285528061141152506121296000f3fe608060405234801561001057600080fd5b50600436106101ae5760003560e01c806378e97925116100ee578063c6ab5d9011610097578063ec94e0a311610071578063ec94e0a31461033e578063f291757f14610351578063f2fde38b14610364578063fb87a63514610377576101ae565b8063c6ab5d9014610310578063dfef571714610323578063e43252d71461032b576101ae565b80638da5cb5b116100c85780638da5cb5b146102d5578063a6177139146102ea578063bd18e0fd146102fd576101ae565b806378e97925146102a55780637bfa7f5f146102ad5780638a8a759e146102cd576101ae565b80633af32abf1161015b57806363119960116101355780636311996014610264578063654cfdff146102775780636c281c051461028a578063715018a61461029d576101ae565b80633af32abf1461023657806362107e8d146102495780636269afab14610251576101ae565b806325c065b11161018c57806325c065b1146101f95780632a5bf6d21461020e5780632f0c1ed51461022e576101ae565b806302fb0c5e146101b35780630a3453d7146101d15780630c6f444b146101e6575b600080fd5b6101bb61039f565b6040516101c89190611c17565b60405180910390f35b6101e46101df366004611af7565b6103a8565b005b6101e46101f4366004611a1e565b6103e8565b610201610464565b6040516101c89190612016565b61022161021c3660046119c0565b610471565b6040516101c89190611bb6565b61020161051c565b6101bb6102443660046119c0565b610522565b6102016105d0565b6101e461025f3660046119c0565b6105d6565b6102016102723660046119db565b610684565b6101e4610285366004611b27565b6107f1565b6102016102983660046119db565b610cde565b6101e4610dae565b610201610e44565b6102c06102bb366004611b27565b610e4a565b6040516101c8919061207c565b610201610f61565b6102dd610f6f565b6040516101c89190611b4b565b6101e46102f8366004611a1e565b610f7e565b61020161030b366004611adb565b610fed565b6101e461031e366004611adb565b611023565b6101e46113af565b6101e46103393660046119c0565b6115f3565b61020161034c366004611b27565b6116a7565b61020161035f366004611adb565b6117ae565b6101e46103723660046119c0565b6117e4565b61038a610385366004611adb565b6118b1565b6040516101c89998979695949392919061202d565b60045460ff1681565b60038190556040517fe438b1e59c6066523a5ab53e2973f73b565e85312ebf606bae7fe8e006d255ce906103dd908390612016565b60405180910390a150565b6103f0611910565b6001600160a01b0316610401610f6f565b6001600160a01b0316146104305760405162461bcd60e51b815260040161042790611e4b565b60405180910390fd5b60005b81518110156104605761045882828151811061044b57fe5b60200260200101516105d6565b600101610433565b5050565b686c6b935b8bbd40000081565b6001600160a01b0381166000908152600860209081526040808320805482518185028101850190935280835260609492939192909184015b82821015610510576000848152602090206040805160608101909152600384029091018054829060ff1660028111156104de57fe5b60028111156104e957fe5b815260200160018201548152602001600282015481525050815260200190600101906104a9565b5050505090505b919050565b60035481565b6001600160a01b03811660009081526001602052604081205460ff16806105ca57506003546002546040516370a0823160e01b81526001600160a01b03909116906370a0823190610577908690600401611b4b565b60206040518083038186803b15801561058f57600080fd5b505afa1580156105a3573d6000803e3d6000fd5b505050506040513d601f19601f820116820180604052508101906105c79190611b0f565b10155b92915050565b60065481565b6105de611910565b6001600160a01b03166105ef610f6f565b6001600160a01b0316146106155760405162461bcd60e51b815260040161042790611e4b565b6001600160a01b03811661063b5760405162461bcd60e51b815260040161042790611fa8565b6001600160a01b038116600081815260016020526040808220805460ff19169055517fcdd2e9b91a56913d370075169cefa1602ba36be5301664f752192bb1709df7579190a250565b60008060005b6001600160a01b0385166000908152600860205260409020548110156107e9578360028111156106b657fe5b6001600160a01b03861660009081526008602052604090208054839081106106da57fe5b600091825260209091206003909102015460ff1660028111156106f957fe5b14156107e1576001600160a01b038516600090815260086020526040812080546201518091908490811061072957fe5b90600052602060002090600302016002015442038161074457fe5b049050600061075382876116a7565b905060006107618388610e4a565b90506107db6907baab4146b63dd000008267ffffffffffffffff1684600860008d6001600160a01b03166001600160a01b0316815260200190815260200160002088815481106107ad57fe5b906000526020600020906003020160010154670de0b6b3a7640000020202816107d257fe5b87919004611914565b94505050505b60010161068a565b509392505050565b3360008181526001602081905260409091205460ff161515146108265760405162461bcd60e51b815260040161042790611f14565b60045460ff16151560011461084d5760405162461bcd60e51b815260040161042790611db7565b6040516370a0823160e01b815283906001600160a01b037f000000000000000000000000000000000000000000000000000000000000000016906370a082319061089b903390600401611b4b565b60206040518083038186803b1580156108b357600080fd5b505afa1580156108c7573d6000803e3d6000fd5b505050506040513d601f19601f820116820180604052508101906108eb9190611b0f565b10156109095760405162461bcd60e51b815260040161042790611cb5565b6040517fdd62ed3e00000000000000000000000000000000000000000000000000000000815283906001600160a01b037f0000000000000000000000000000000000000000000000000000000000000000169063dd62ed3e906109729033903090600401611b5f565b60206040518083038186803b15801561098a57600080fd5b505afa15801561099e573d6000803e3d6000fd5b505050506040513d601f19601f820116820180604052508101906109c29190611b0f565b10156109e05760405162461bcd60e51b815260040161042790611fdf565b686c6b935b8bbd400000831015610a095760405162461bcd60e51b815260040161042790611e80565b60076000836002811115610a1957fe5b6002811115610a2457fe5b81526020019081526020016000206002015460076000846002811115610a4657fe5b6002811115610a5157fe5b81526020019081526020016000206006015410610a805760405162461bcd60e51b815260040161042790611dee565b6006544210610aa15760405162461bcd60e51b815260040161042790611eb7565b610ae08360076000856002811115610ab557fe5b6002811115610ac057fe5b81526020019081526020016000206006015461191490919063ffffffff16565b60076000846002811115610af057fe5b6002811115610afb57fe5b815260200190815260200160002060060181905550610b4f8360076000856002811115610b2457fe5b6002811115610b2f57fe5b81526020019081526020016000206005015461191490919063ffffffff16565b60076000846002811115610b5f57fe5b6002811115610b6a57fe5b81526020019081526020016000206005018190555060086000336001600160a01b03166001600160a01b031681526020019081526020016000206040518060600160405280846002811115610bbb57fe5b815260208082018790524260409092019190915282546001818101855560009485529190932082516003909402018054929390929091839160ff191690836002811115610c0457fe5b021790555060208201516001820155604091820151600290910155517f23b872dd0000000000000000000000000000000000000000000000000000000081526001600160a01b037f000000000000000000000000000000000000000000000000000000000000000016906323b872dd90610c8690339030908890600401611b79565b602060405180830381600087803b158015610ca057600080fd5b505af1158015610cb4573d6000803e3d6000fd5b505050506040513d601f19601f82011682018060405250810190610cd89190611abb565b50505050565b60008060005b6001600160a01b0385166000908152600860205260409020548110156107e957836002811115610d1057fe5b6001600160a01b0386166000908152600860205260409020805483908110610d3457fe5b600091825260209091206003909102015460ff166002811115610d5357fe5b1415610da6576001600160a01b03851660009081526008602052604090208054610da3919083908110610d8257fe5b9060005260206000209060030201600101548361191490919063ffffffff16565b91505b600101610ce4565b610db6611910565b6001600160a01b0316610dc7610f6f565b6001600160a01b031614610ded5760405162461bcd60e51b815260040161042790611e4b565b600080546040516001600160a01b03909116907f8be0079c531659141344cd1fd0a4f28419497f9722a3daafe3b4186f6b6457e0908390a36000805473ffffffffffffffffffffffffffffffffffffffff19169055565b60055481565b600060076000836002811115610e5c57fe5b6002811115610e6757fe5b815260208101919091526040016000206001015467ffffffffffffffff168310610ecb5760076000836002811115610e9b57fe5b6002811115610ea657fe5b815260208101919091526040016000206001015467ffffffffffffffff1690506105ca565b60076000836002811115610edb57fe5b6002811115610ee657fe5b8152602081019190915260400160002060010154600160801b900467ffffffffffffffff168310610f585760076000836002811115610f2157fe5b6002811115610f2c57fe5b8152602081019190915260400160002060010154600160801b900467ffffffffffffffff1690506105ca565b50600092915050565b69500fe0681fb4a19b000081565b6000546001600160a01b031690565b610f86611910565b6001600160a01b0316610f97610f6f565b6001600160a01b031614610fbd5760405162461bcd60e51b815260040161042790611e4b565b60005b815181101561046057610fe5828281518110610fd857fe5b60200260200101516115f3565b600101610fc0565b600060076000836002811115610fff57fe5b600281111561100a57fe5b8152602001908152602001600020600501549050919050565b3360008181526001602081905260409091205460ff161515146110585760405162461bcd60e51b815260040161042790611f14565b60045460ff16151560011461107f5760405162461bcd60e51b815260040161042790611db7565b600061108b3384610cde565b9050600081116110ad5760405162461bcd60e51b815260040161042790611cec565b60006110b93385610684565b90506110fa82600760008760028111156110cf57fe5b60028111156110da57fe5b81526020019081526020016000206005015461194090919063ffffffff16565b6007600086600281111561110a57fe5b600281111561111557fe5b815260200190815260200160002060050181905550611169816007600087600281111561113e57fe5b600281111561114957fe5b81526020019081526020016000206004015461194090919063ffffffff16565b6007600086600281111561117957fe5b600281111561118457fe5b81526020019081526020016000206004018190555060005b33600090815260086020526040902054811015611245578460028111156111bf57fe5b3360009081526008602052604090208054839081106111da57fe5b600091825260209091206003909102015460ff1660028111156111f957fe5b141561123d5733600090815260086020526040902080548290811061121a57fe5b600091825260208220600390910201805460ff1916815560018101829055600201555b60010161119c565b5060006112528383611914565b6040517fa9059cbb0000000000000000000000000000000000000000000000000000000081529091506001600160a01b037f0000000000000000000000000000000000000000000000000000000000000000169063a9059cbb906112bc9033908590600401611b9d565b602060405180830381600087803b1580156112d657600080fd5b505af11580156112ea573d6000803e3d6000fd5b505050506040513d601f19601f8201168201806040525081019061130e9190611abb565b507f90a9098aa5ea5ea1098d8651723e3839693bb21ceaf8c670fdfe58357fff94b985338585600760008b600281111561134457fe5b600281111561134f57fe5b815260200190815260200160002060050154600760008c600281111561137157fe5b600281111561137c57fe5b8152602001908152602001600020600401546040516113a096959493929190611c22565b60405180910390a15050505050565b6113b7611910565b6001600160a01b03166113c8610f6f565b6001600160a01b0316146113ee5760405162461bcd60e51b815260040161042790611e4b565b6040516370a0823160e01b815269500fe0681fb4a19b0000906001600160a01b037f000000000000000000000000000000000000000000000000000000000000000016906370a0823190611446903090600401611b4b565b60206040518083038186803b15801561145e57600080fd5b505afa158015611472573d6000803e3d6000fd5b505050506040513d601f19601f820116820180604052508101906114969190611b0f565b146114b35760405162461bcd60e51b815260040161042790611f71565b6004805460ff191660011790554260058190556114d390620d2f00611914565b60065560076020527f6d5257204ebe7d88fd91ae87941cb2dd9d8062b64ae5a2bd2d28ec40b9fbf6e2547f6d5257204ebe7d88fd91ae87941cb2dd9d8062b64ae5a2bd2d28ec40b9fbf6e3557fb39221ace053465ec3453ce2b36430bd138b997ecea25c1043da0c366812b82b547fb39221ace053465ec3453ce2b36430bd138b997ecea25c1043da0c366812b82c5560026000527fb7c774451310d1be4108bc180d1b52823cb0ee0274a6c0081bcaf94f115fb970547fb7c774451310d1be4108bc180d1b52823cb0ee0274a6c0081bcaf94f115fb971556005546040517f026cfee5c80e24c0160c7f7aab61a3abfca172e09f4b963ae55218c6c7e2ea61916115e99169500fe0681fb4a19b00009061201f565b60405180910390a1565b6115fb611910565b6001600160a01b031661160c610f6f565b6001600160a01b0316146116325760405162461bcd60e51b815260040161042790611e4b565b6001600160a01b0381166116585760405162461bcd60e51b815260040161042790611fa8565b6001600160a01b0381166000818152600160208190526040808320805460ff1916909217909155517fa850ae9193f515cbae8d35e8925bd2be26627fc91bce650b8652ed254e9cab039190a250565b6000600760008360028111156116b957fe5b60028111156116c457fe5b815260208101919091526040016000206001015467ffffffffffffffff16831061171c57600760008360028111156116f857fe5b600281111561170357fe5b81526020019081526020016000206000015490506105ca565b6007600083600281111561172c57fe5b600281111561173757fe5b8152602081019190915260400160002060010154600160801b900467ffffffffffffffff168310610f58576007600083600281111561177257fe5b600281111561177d57fe5b815260208101919091526040016000206001015468010000000000000000900467ffffffffffffffff1690506105ca565b6000600760008360028111156117c057fe5b60028111156117cb57fe5b8152602001908152602001600020600401549050919050565b6117ec611910565b6001600160a01b03166117fd610f6f565b6001600160a01b0316146118235760405162461bcd60e51b815260040161042790611e4b565b6001600160a01b0381166118495760405162461bcd60e51b815260040161042790611d23565b600080546040516001600160a01b03808516939216917f8be0079c531659141344cd1fd0a4f28419497f9722a3daafe3b4186f6b6457e091a36000805473ffffffffffffffffffffffffffffffffffffffff19166001600160a01b0392909216919091179055565b6007602052600090815260409020805460018201546002830154600384015460048501546005860154600690960154949567ffffffffffffffff80861696680100000000000000008704821696600160801b9004909116949392919089565b3390565b6000828201838110156119395760405162461bcd60e51b815260040161042790611d80565b9392505050565b600061193983836040518060400160405280601e81526020017f536166654d6174683a207375627472616374696f6e206f766572666c6f770000815250600081848411156119a15760405162461bcd60e51b81526004016104279190611c62565b505050900390565b80356001600160a01b03811681146105ca57600080fd5b6000602082840312156119d1578081fd5b61193983836119a9565b600080604083850312156119ed578081fd5b82356001600160a01b0381168114611a03578182fd5b91506020830135611a13816120e3565b809150509250929050565b60006020808385031215611a30578182fd5b823567ffffffffffffffff811115611a46578283fd5b8301601f81018513611a56578283fd5b8035611a69611a64826120b8565b612091565b8181528381019083850185840285018601891015611a85578687fd5b8694505b83851015611aaf57611a9b89826119a9565b835260019490940193918501918501611a89565b50979650505050505050565b600060208284031215611acc578081fd5b81518015158114611939578182fd5b600060208284031215611aec578081fd5b8135611939816120e3565b600060208284031215611b08578081fd5b5035919050565b600060208284031215611b20578081fd5b5051919050565b60008060408385031215611b39578182fd5b823591506020830135611a13816120e3565b6001600160a01b0391909116815260200190565b6001600160a01b0392831681529116602082015260400190565b6001600160a01b039384168152919092166020820152604081019190915260600190565b6001600160a01b03929092168252602082015260400190565b602080825282518282018190526000919060409081850190868401855b82811015611c0a578151611be781516120d8565b855280870151878601528501518585015260609093019290850190600101611bd3565b5091979650505050505050565b901515815260200190565b60c08101611c2f886120d8565b82526001600160a01b0396909616602082015260408101949094526060840192909252608083015260a090910152919050565b6000602080835283518082850152825b81811015611c8e57858101830151858201604001528201611c72565b81811115611c9f5783604083870101525b50601f01601f1916929092016040019392505050565b60208082526016908201527f4e6f7420656e6f756768205354414b20746f6b656e7300000000000000000000604082015260600190565b60208082526013908201527f4e6f7468696e6720746f20776974686472617700000000000000000000000000604082015260600190565b60208082526026908201527f4f776e61626c653a206e6577206f776e657220697320746865207a65726f206160408201527f6464726573730000000000000000000000000000000000000000000000000000606082015260800190565b6020808252601b908201527f536166654d6174683a206164646974696f6e206f766572666c6f770000000000604082015260600190565b60208082526019908201527f5374616b696e6720686173206e6f7420626567756e2079657400000000000000604082015260600190565b60208082526022908201527f436f6e7472616374207374616b696e672063617061636974792065786365656460408201527f6564000000000000000000000000000000000000000000000000000000000000606082015260800190565b6020808252818101527f4f776e61626c653a2063616c6c6572206973206e6f7420746865206f776e6572604082015260600190565b60208082526015908201527f6465706f736974416d6f756e7420746f6f206c6f770000000000000000000000604082015260600190565b60208082526029908201527f436f6e7472616374207374616b696e67206465706f7369742074696d6520706560408201527f72696f64206f7665720000000000000000000000000000000000000000000000606082015260800190565b60208082526030908201527f557365722069736e277420617574686f72697a656420746f20706572666f726d60408201527f2074686973206f7065726174696f6e2e00000000000000000000000000000000606082015260800190565b6020808252601a908201527f4e6f7420656e6f756768207374616b696e672072657761726473000000000000604082015260600190565b6020808252601c908201527f49434f5f43414d504149474e3a3a494e56414c49445f57414c4c455400000000604082015260600190565b60208082526018908201527f436865636b20746865205354414b20616c6c6f77616e63650000000000000000604082015260600190565b90815260200190565b918252602082015260400190565b98895267ffffffffffffffff97881660208a01529587166040890152939095166060870152608086019190915260a085015260c084019290925260e08301919091526101008201526101200190565b67ffffffffffffffff91909116815260200190565b60405181810167ffffffffffffffff811182821017156120b057600080fd5b604052919050565b600067ffffffffffffffff8211156120ce578081fd5b5060209081020190565b806003811061051757fe5b600381106120f057600080fd5b5056fea2646970667358221220ffd5d909045193c99af6aba0810a27eda37669b092202cd48f2e5ec63a4e874364736f6c634300060c0033",
  "linkReferences": {},
  "deployedLinkReferences": {}
}