{
  "_format": "hh-sol-artifact-1",
  "contractName": "Whitelist",
  "sourceName": "contracts/libraries/Whitelist.sol",
  "abi": [
    {
      "anonymous": false,
      "inputs": [
        {
          "indexed": true,
          "internalType": "address",
          "name": "account",
          "type": "address"
        }
      ],
      "name": "AddedToWhitelist",
      "type": "event"
    },
    {
      "anonymous": false,
      "inputs": [
        {
          "indexed": false,
          "internalType": "uint256",
          "name": "amount",
          "type": "uint256"
        }
      ],
      "name": "MinHeldTokensChanged",
      "type": "event"
    },
    {
      "anonymous": false,
      "inputs": [
        {
          "indexed": true,
          "internalType": "address",
          "name": "previousOwner",
          "type": "address"
        },
        {
          "indexed": true,
          "internalType": "address",
          "name": "newOwner",
          "type": "address"
        }
      ],
      "name": "OwnershipTransferred",
      "type": "event"
    },
    {
      "anonymous": false,
      "inputs": [
        {
          "indexed": true,
          "internalType": "address",
          "name": "account",
          "type": "address"
        }
      ],
      "name": "RemovedFromWhitelist",
      "type": "event"
    },
    {
      "inputs": [
        {
          "internalType": "address",
          "name": "_address",
          "type": "address"
        }
      ],
      "name": "addToWhitelist",
      "outputs": [],
      "stateMutability": "nonpayable",
      "type": "function"
    },
    {
      "inputs": [
        {
          "internalType": "address[]",
          "name": "_address",
          "type": "address[]"
        }
      ],
      "name": "addToWhitelistBatch",
      "outputs": [],
      "stateMutability": "nonpayable",
      "type": "function"
    },
    {
      "inputs": [
        {
          "internalType": "address",
          "name": "_address",
          "type": "address"
        }
      ],
      "name": "isWhitelisted",
      "outputs": [
        {
          "internalType": "bool",
          "name": "",
          "type": "bool"
        }
      ],
      "stateMutability": "view",
      "type": "function"
    },
    {
      "inputs": [],
      "name": "minHeldTokens",
      "outputs": [
        {
          "internalType": "uint256",
          "name": "",
          "type": "uint256"
        }
      ],
      "stateMutability": "view",
      "type": "function"
    },
    {
      "inputs": [],
      "name": "owner",
      "outputs": [
        {
          "internalType": "address",
          "name": "",
          "type": "address"
        }
      ],
      "stateMutability": "view",
      "type": "function"
    },
    {
      "inputs": [
        {
          "internalType": "address",
          "name": "_address",
          "type": "address"
        }
      ],
      "name": "removFromWhitelist",
      "outputs": [],
      "stateMutability": "nonpayable",
      "type": "function"
    },
    {
      "inputs": [
        {
          "internalType": "address[]",
          "name": "_address",
          "type": "address[]"
        }
      ],
      "name": "removFromWhitelistBatch",
      "outputs": [],
      "stateMutability": "nonpayable",
      "type": "function"
    },
    {
      "inputs": [],
      "name": "renounceOwnership",
      "outputs": [],
      "stateMutability": "nonpayable",
      "type": "function"
    },
    {
      "inputs": [
        {
          "internalType": "uint256",
          "name": "_amount",
          "type": "uint256"
        }
      ],
      "name": "setHeldTokens",
      "outputs": [],
      "stateMutability": "nonpayable",
      "type": "function"
    },
    {
      "inputs": [
        {
          "internalType": "address",
          "name": "newOwner",
          "type": "address"
        }
      ],
      "name": "transferOwnership",
      "outputs": [],
      "stateMutability": "nonpayable",
      "type": "function"
    }
  ],
  "bytecode": "0x6080604052600280546001600160a01b031916731f8a626883d7724dbd59ef51cbd4bf1cf2016d1317905568056bc75e2d6310000060035534801561004357600080fd5b50600061004e61009d565b600080546001600160a01b0319166001600160a01b0383169081178255604051929350917f8be0079c531659141344cd1fd0a4f28419497f9722a3daafe3b4186f6b6457e0908290a3506100a1565b3390565b6109f8806100b06000396000f3fe608060405234801561001057600080fd5b50600436106100be5760003560e01c8063715018a611610076578063a61771391161005b578063a61771391461022b578063e43252d7146102ce578063f2fde38b146102f4576100be565b8063715018a6146101ff5780638da5cb5b14610207576100be565b80632f0c1ed5116100a75780632f0c1ed5146101855780633af32abf1461019f5780636269afab146101d9576100be565b80630a3453d7146100c35780630c6f444b146100e2575b600080fd5b6100e0600480360360208110156100d957600080fd5b503561031a565b005b6100e0600480360360208110156100f857600080fd5b81019060208101813564010000000081111561011357600080fd5b82018360208201111561012557600080fd5b8035906020019184602083028401116401000000008311171561014757600080fd5b919080806020026020016040519081016040528093929190818152602001838360200280828437600092019190915250929550610355945050505050565b61018d6103fd565b60408051918252519081900360200190f35b6101c5600480360360208110156101b557600080fd5b50356001600160a01b0316610403565b604080519115158252519081900360200190f35b6100e0600480360360208110156101ef57600080fd5b50356001600160a01b03166104c3565b6100e06105db565b61020f6106a6565b604080516001600160a01b039092168252519081900360200190f35b6100e06004803603602081101561024157600080fd5b81019060208101813564010000000081111561025c57600080fd5b82018360208201111561026e57600080fd5b8035906020019184602083028401116401000000008311171561029057600080fd5b9190808060200260200160405190810160405280939291908181526020018383602002808284376000920191909152509295506106b5945050505050565b6100e0600480360360208110156102e457600080fd5b50356001600160a01b0316610759565b6100e06004803603602081101561030a57600080fd5b50356001600160a01b0316610877565b60038190556040805182815290517fe438b1e59c6066523a5ab53e2973f73b565e85312ebf606bae7fe8e006d255ce9181900360200190a150565b61035d610998565b6001600160a01b031661036e6106a6565b6001600160a01b0316146103c9576040805162461bcd60e51b815260206004820181905260248201527f4f776e61626c653a2063616c6c6572206973206e6f7420746865206f776e6572604482015290519081900360640190fd5b60005b81518110156103f9576103f18282815181106103e457fe5b60200260200101516104c3565b6001016103cc565b5050565b60035481565b6001600160a01b03811660009081526001602052604081205460ff16806104bd5750600354600254604080517f70a082310000000000000000000000000000000000000000000000000000000081526001600160a01b038681166004830152915191909216916370a08231916024808301926020929190829003018186803b15801561048e57600080fd5b505afa1580156104a2573d6000803e3d6000fd5b505050506040513d60208110156104b857600080fd5b505110155b92915050565b6104cb610998565b6001600160a01b03166104dc6106a6565b6001600160a01b031614610537576040805162461bcd60e51b815260206004820181905260248201527f4f776e61626c653a2063616c6c6572206973206e6f7420746865206f776e6572604482015290519081900360640190fd5b6001600160a01b038116610592576040805162461bcd60e51b815260206004820152601c60248201527f49434f5f43414d504149474e3a3a494e56414c49445f57414c4c455400000000604482015290519081900360640190fd5b6001600160a01b038116600081815260016020526040808220805460ff19169055517fcdd2e9b91a56913d370075169cefa1602ba36be5301664f752192bb1709df7579190a250565b6105e3610998565b6001600160a01b03166105f46106a6565b6001600160a01b03161461064f576040805162461bcd60e51b815260206004820181905260248201527f4f776e61626c653a2063616c6c6572206973206e6f7420746865206f776e6572604482015290519081900360640190fd5b600080546040516001600160a01b03909116907f8be0079c531659141344cd1fd0a4f28419497f9722a3daafe3b4186f6b6457e0908390a36000805473ffffffffffffffffffffffffffffffffffffffff19169055565b6000546001600160a01b031690565b6106bd610998565b6001600160a01b03166106ce6106a6565b6001600160a01b031614610729576040805162461bcd60e51b815260206004820181905260248201527f4f776e61626c653a2063616c6c6572206973206e6f7420746865206f776e6572604482015290519081900360640190fd5b60005b81518110156103f95761075182828151811061074457fe5b6020026020010151610759565b60010161072c565b610761610998565b6001600160a01b03166107726106a6565b6001600160a01b0316146107cd576040805162461bcd60e51b815260206004820181905260248201527f4f776e61626c653a2063616c6c6572206973206e6f7420746865206f776e6572604482015290519081900360640190fd5b6001600160a01b038116610828576040805162461bcd60e51b815260206004820152601c60248201527f49434f5f43414d504149474e3a3a494e56414c49445f57414c4c455400000000604482015290519081900360640190fd5b6001600160a01b0381166000818152600160208190526040808320805460ff1916909217909155517fa850ae9193f515cbae8d35e8925bd2be26627fc91bce650b8652ed254e9cab039190a250565b61087f610998565b6001600160a01b03166108906106a6565b6001600160a01b0316146108eb576040805162461bcd60e51b815260206004820181905260248201527f4f776e61626c653a2063616c6c6572206973206e6f7420746865206f776e6572604482015290519081900360640190fd5b6001600160a01b0381166109305760405162461bcd60e51b815260040180806020018281038252602681526020018061099d6026913960400191505060405180910390fd5b600080546040516001600160a01b03808516939216917f8be0079c531659141344cd1fd0a4f28419497f9722a3daafe3b4186f6b6457e091a36000805473ffffffffffffffffffffffffffffffffffffffff19166001600160a01b0392909216919091179055565b339056fe4f776e61626c653a206e6577206f776e657220697320746865207a65726f2061646472657373a26469706673582212201e4ca6f8ad9422bddf40402a54fa97b8c1e9557c99e97a841ae400d8be273d4564736f6c634300060c0033",
  "linkReferences": {},
  "deployedLinkReferences": {}
}